:020000040800F2
:1000000000000120C5020008CB020008CF02000852
:1000100041030008450300088D03000800000000AC
:10002000000000000000000000000000D5030008F0
:10003000D903000800000000DD03000839070008AC
:10004000F1030008F1030008F1030008F1030008C0
:10005000F1030008F1030008E91100080912000883
:10006000291200084912000869120008F10300086B
:10007000F1030008F1030008F1030008F103000890
:10008000F1030008F103000851150008000000000A
:1000900000000000000000000000000089120008BD
:1000A000F1030008F1030008F1030008F103000860
:1000B000F1030008F1030008F1030008F103000850
:1000C000F1030008F1030008F1030008F103000840
:1000D000F1030008F1030008F1030008000000002C
:1000E00001130008F1030008F103000800000000FC
:1000F000000000000000000000000000F103000804
:1001000000000000F1030008F1030008F1030008FB
:1001100000000000000000000000000000000000DF
:10012000F1030008F1030008F1030008F1030008DF
:10013000F1030008000000000000000000000000C3
:10014000000000000000000000000000F1030008B3
:10015000F1030008F1030008F1030008F1030008AF
:10016000F1030008F1030008000000000000000097
:10017000000000000000000000000000000000007F
:1001800000000000F1030008000000000000000073
:10019000F103000800B583B000F0BAF9384B394AD2
:1001A0001360394A1360394900E02146384B9942BF
:1001B0000BD20A684B6801F10C0488689842F4D9A4
:1001C0001168196004330432F8E72E4B1A68314B7A
:1001D0009A4200D0FEE72C4B1A682F4B9A42F9D175
:1001E000274B2E4A13602E4A13602E4B05E0002049
:1001F000106004329342FAD80B462B4A934204D241
:10020000194651F8082B5B68F4E7244B1B6813B9B7
:10021000234B1B6803B1FEE701F01EFD694601A8F0
:1002200000F022F9214C224BE41AA4100025AC4224
:1002300014DC204C204BE41AA4100025AC4213DC43
:100240000099019801F00AFD05461C4C1C4BE41A6C
:10025000A410002C0EDC284600F0E2F8144B53F8F2
:10026000253098470135E2E7134B53F8253098477E
:100270000135E3E7013C124B53F824309847E8E797
:10028000BABADECA0000002094000020F40300087F
:100290000C040008785634123254769898000020E6
:1002A000940100200C0400081C0400081C04000831
:1002B0001C0400081C0400081C0400081C0400089E
:1002C0001C04000808B5FFF765FF00BEFEE71EF03E
:1002D000040F0CBFEFF30880EFF309807146414A29
:1002E00010472DE9F04182B004468846124B5E6B00
:1002F0009F6B9D6A1B6B13F0020F03D00E4BDB6AE2
:10030000002B0CDB0D4800F0B7F8CDF800803B4621
:1003100032462946204600F007F900BEFEE74BF6BC
:10032000AB6100F07BF90028ECD0034B4FF00042AA
:10033000DA6202B0BDE8F08100ED00E0243600088A
:1003400000BEFEE71EF0040F0CBFEFF30880EFF3D2
:1003500009807146244A10472DE9F04182B00446D5
:100360008846084B5E6B9F6B9D6A074800F084F8D7
:10037000CDF800803B4632462946204600F0D4F8AE
:1003800000BEFEE700ED00E0343600081EF0040F6A
:100390000CBFEFF30880EFF309807146134A104752
:1003A0002DE9F04182B004468846084B5E6B9F6B96
:1003B0009D6A074800F060F8CDF800803B46324661
:1003C0002946204600F0B0F800BEFEE700ED00E050
:1003D0004036000800BEFEE700BEFEE700BEFEE7B6
:1003E00070470000E302000859030008A103000859
:0403F00000BEFEE766
:1003F400E0D900080000002098000020E0D900089F
:100404000000001000000010980000209801002057
:080414000000001000000010C0
:10042000FEE7000008B503460C4A12685AB10B4AB1
:100430001068033323F003030344094A934206D8A8
:10044000064A136008BD054A06491160EFE702F04D
:10045000E5FB0C2303604FF0FF30F3E79C00002026
:1004600000FC00209801002001230360014B0B6079
:10047000704700BF040000200FB400B583B004AB88
:1004800053F8042B01938021064802F0F9FB002861
:1004900003DD0146034800F037F803B05DF804EBD4
:1004A00004B07047A40000202DE9F04385B0044655
:1004B0000F4643560BB10E461EE004252846214642
:1004C000ABBE0446384605B0BDE8F08314F9011B05
:1004D00004AA1A4402F8101C0133AB42F6D304AA52
:1004E0001344002203F8102C4FF00408E94640465C
:1004F0004946ABBE8046761B002EE3D03546102E13
:1005000028BF10250023E8E708B5FFF7CDFF08BD99
:1005100008B500F093F8024A024B9A6008BD00BF8C
:100520000000000800ED00E0F8B504460D4617464F
:100530001E462748FFF7A0FF21682648FFF79CFFCB
:1005400061682548FFF798FFA1682448FFF794FFEA
:10055000E1682348FFF790FF21692248FFF78CFFED
:1005600061692148FFF788FFA1692048FFF784FFF0
:10057000E1691F48FFF780FF1E48FFF77DFF29460E
:100580001D48FFF779FF1D4CE16A1D48FFF774FF16
:10059000216B1C48FFF770FFE16B1B48FFF76CFFF6
:1005A00015F0800F0AD115F4004F0CD11748FFF752
:1005B00063FF06991648FFF75FFFF8BD39461548F7
:1005C000FFF75AFFEFE731461348FFF755FFEDE716
:1005D00008350008183500082835000838350008A7
:1005E0004835000858350008683500087835000897
:1005F0008835000898350008A435000800ED00E0B3
:10060000B4350008C4350008D435000804360008A5
:100610000C360008E4350008F435000883691A88B0
:100620008A4201D0002070470268033A012A03D8A9
:100630000233836101207047002070470C4B1A6819
:1006400042F001021A60002199601A6822F0847257
:1006500022F480321A60074A5A601A6822F4802213
:100660001A60D960044B4FF000629A60704700BF77
:10067000003802401030002400ED00E0044B1A68FE
:1006800042F004021A601A6842F002021A607047CF
:1006900010E000E008B502F0F9F84FF0834102F0F5
:1006A0004DF902F09BFAB0F1807F26D2214B002257
:1006B0009A6058601A6842F001021A601D4B1B686C
:1006C00013F4803FFAD01B4A136823F00103136030
:1006D00008BD184B00229A606FF07F425A601A687A
:1006E00042F001021A60134B1B6813F4803FFAD0EA
:1006F000104A136823F0010313600028E8D0B0F11A
:10070000807FE6D300F17F4001300A4B00229A60DF
:100710006FF07F425A601A6842F001021A60054B7E
:100720001B6813F4803FFAD0024A136823F00103D8
:100730001360E2E710E000E008B5164B1B68012BE0
:1007400003D9013B134A136008BDA3B9124B1B68C0
:1007500023B1124A11680F4A11609847104B1B7859
:10076000002BF1D00E4B00221A700E4A136823F0B2
:1007700001031360E8E7013B064A1360094B0022BE
:100780009A60094A12685A601A6842F001021A60B7
:10079000DAE700BF24010020340100202C010020F2
:1007A0003001002010E000E02801002010B50446D0
:1007B00000F03EF90021012000F082F901210846F5
:1007C00000F07EF9022C50D0032C00F09980012C0F
:1007D00000D010BD0C21042000F072F96E4C0722ED
:1007E0000121204600F09AFB05220721012000F09C
:1007F0001FFB06220121204600F090FB0522062166
:10080000012000F015FB05220121204600F086FBA7
:1008100005221146012000F00BFB604B1A6842F0E4
:1008200001021A601A6842F002021A601A6842F065
:1008300004021A601A6822F0380242F028021A6094
:100840001A6822F080021A601A6842F400721A6074
:100850001A6842F480721A601A6822F400621A6000
:100860001A6842F040021A60B3E70E21032000F03C
:1008700027F9494C0F220221204600F04FFB0522A8
:100880000F21022000F0D4FA0E220221204600F0AF
:1008900045FB05220E21022000F0CAFA0D2202219A
:1008A000204600F03BFB05220D21022000F0C0FA9B
:1008B0003B4B1A6842F001021A601A6842F00202C9
:1008C0001A601A6842F004021A601A6822F03802AC
:1008D00042F028021A601A6822F080021A601A6830
:1008E00042F400721A601A6842F480721A601A6840
:1008F00022F400621A601A6842F040021A6068E747
:100900000F21032000F0DCF8234C052202212046B1
:1009100000F004FB06220521022000F089FA0422DF
:100920000221204600F0FAFA06220421022000F0FB
:100930007FFA03220221204600F0F0FA062203216A
:10094000022000F075FA174B1A6842F001021A6093
:100950001A6842F002021A601A6842F004021A6031
:100960001A6822F0380242F028021A601A6822F04F
:1009700080021A601A6842F400721A601A6842F41F
:1009800080721A601A6822F400621A601A6842F0D3
:1009900040021A601DE700BF1C000020003001402B
:1009A00000380040003C004002280ED0032816D03A
:1009B000012800D070470F4BD96000E000BF0D4BFD
:1009C0009B6813F0800FF9D170470B4BD96000E0A2
:1009D00000BF094B9B6813F0800FF9D17047074B9C
:1009E000D96000E000BF054B9B6813F0800FF9D180
:1009F000E0E700BF0030014000380040003C00400C
:100A0000022808D0032809D0012801D0002070470F
:100A1000044BD8687047044BD8687047034BD868BC
:100A2000704700BF0030014000380040003C0040EB
:100A3000214B1A6842F400221A601A6822F48022BC
:100A40001A609A6842F001029A609A6822F00202E3
:100A50009A609A6822F010029A609A6822F0200246
:100A60009A609A6822F040029A609A6822F08002A6
:100A70009A609A6822F480629A609A6822F400620E
:100A80009A609A6822F480529A609A6822F400521E
:100A90009A609A6822F480429A609A6822F400422E
:100AA0009A60064A5A605A6842F480025A601A688C
:100AB00042F001021A60704700380240204E0400E4
:100AC0001F2925D80138032822D8DFE800F0020AC0
:100AD000121A1048036B012202FA01F11943016353
:100AE00070470C48436B012202FA01F1194341633C
:100AF00070470848036C012202FA01F119430164AE
:100B000070470448436C012202FA01F11943416421
:100B1000704700BF0038024000F01F024009012367
:100B20009340024A42F82030704700BF00E100E0E5
:100B30000F293AD810B4022815D0032825D001284F
:100B400001D010BC70470C29FBD8184B186849001D
:100B500003248C4020EA04001860186802FA01F1AE
:100B600001431960EDE78B1EDBB2022BE9D9104B74
:100B70001868490003248C4020EA040018601868B3
:100B800002FA01F101431960DBE70C29D9D9094BBD
:100B90001868490003248C4020EA04001860186893
:100BA00002FA01F101431960CBE7704700000240EF
:100BB00000040240000802400F292BD842BB022843
:100BC0000ED0032819D0012824D10C2922D824487A
:100BD0004368012202FA01F123EA010141607047F2
:100BE0008B1EDBB2022B15D91E484368012202FA84
:100BF00001F123EA0101416070470C290AD91A4822
:100C00004368012202FA01F123EA010141607047C1
:100C1000012A00D0704702280CD0032816D00128E2
:100C2000F8D10C29F6D80E48436802FA01F10B43BB
:100C3000436070478B1EDBB2022BEBD90948436837
:100C4000012202FA01F10B43436070470C29E1D9FC
:100C500005484368012202FA01F10B434360D9E7DA
:100C60000000024000040240000802400F293AD868
:100C700010B4022815D0032825D0012801D010BCBB
:100C800070470C29FBD8184B9868490003248C4006
:100C900020EA04009860986802FA01F10143996023
:100CA000EDE78B1EDBB2022BE9D9104B98684900A7
:100CB00003248C4020EA04009860986802FA01F14D
:100CC00001439960DBE70C29D9D9094B98684900A1
:100CD00003248C4020EA04009860986802FA01F12D
:100CE00001439960CBE770470000024000040240D6
:100CF000000802400F293AD810B4022815D0032862
:100D000025D0012801D010BC70470C29FBD8184B06
:100D1000D868490003248C4020EA0400D860D868D1
:100D200002FA01F10143D960EDE78B1EDBB2022B21
:100D3000E9D9104BD868490003248C4020EA04000C
:100D4000D860D86802FA01F10143D960DBE70C29C9
:100D5000D9D9094BD868490003248C4020EA040003
:100D6000D860D86802FA01F10143D960CBE7704737
:100D70000000024000040240000802400F292BD866
:100D800042BB02280ED0032819D0012824D10C29F7
:100D900022D824484369012202FA01F123EA010121
:100DA000416170478B1EDBB2022B15D91E48436987
:100DB000012202FA01F123EA0101416170470C2985
:100DC0000AD91A484369012202FA01F123EA010112
:100DD00041617047012A00D0704702280CD00328D7
:100DE00016D00128F8D10C29F6D80E48436902FA2A
:100DF00001F10B43436170478B1EDBB2022BEBD931
:100E000009484369012202FA01F10B43436170472B
:100E10000C29E1D905484369012202FA01F10B438B
:100E20004361D9E70000024000040240000802408C
:100E30000F296CD810B4072931D8022813D0032801
:100E40001FD0012801D010BC7047314B186A8C00AC
:100E50000F21A14020EA01011962186A02FA04F187
:100E600001431962EFE72B4B1C6A88000F21814078
:100E700024EA010119621C6A02FA00F12143196295
:100E8000E1E7254B186A89000F248C4020EA040012
:100E90001862186A02FA01F101431962D3E7A1F15D
:100EA0000803DBB2072BCED8022812D003281FD0AC
:100EB0000128C8D1164B586A083989000F248C4084
:100EC00020EA04005862586A02FA01F101435962AB
:100ED000B9E7104B586A083989000F248C4020EA82
:100EE00004005862586A02FA01F101435962AAE704
:100EF000094B586A083989000F248C4020EA040005
:100F00005862586A02FA01F1014359629BE770473F
:100F100000000240000402400008024070B506468E
:100F20000C461546FFF784FD012C18D0022C1BD06F
:100F3000032C1ED0327829462046FFF7F9FD72783F
:100F400029462046FFF738FEB27829462046FFF7AB
:100F50008DFEF27829462046FFF7CCFE70BD0021B9
:100F60000120FFF7ADFDE5E701210846FFF7A8FDE9
:100F7000E0E702210120FFF7A3FDDBE70F2929D8D5
:100F800010B4154A1368012404FA01F10B431360ED
:100F900002280ED0032815D0A04201D010BC704703
:100FA0001346D26822EA0102DA609A681143996016
:100FB000F4E7094B9A6822EA01029A60DA68114361
:100FC000D960EBE7044B9A680A439A60DA681143E8
:100FD000D960E3E7704700BF003C014030B48308AC
:100FE00000F003008000094A023352F823400F2525
:100FF000854024EA050442F8234052F8234081400A
:10100000214342F8231030BC704700BF0038014034
:101010000F2905D8032804D001282AD002282BD074
:1010200070470C29F8D970B516460D460446FFF7EF
:10103000FFFC022C2CD0032C2FD0012C23D00E210E
:101040000420FFF73DFD002229462046FFF770FDF2
:10105000324629462046FFF74DFE0F2D25D8DFE802
:1010600005F0212A2E32363A3E42464A4E52565A10
:101070005E620C29D7D9D1E70229D1D00329CFD07C
:101080000429D0D1CCE700210120FFF719FDD6E7D4
:1010900001210846FFF714FDD1E702210120FFF7E7
:1010A0000FFDCCE70620FFF737FD611EC9B22846C9
:1010B000FFF794FF70BD0720FFF72EFDF5E708202E
:1010C000FFF72AFDF1E70920FFF726FDEDE70A20EB
:1010D000FFF722FDE9E71720FFF71EFDE5E71720E0
:1010E000FFF71AFDE1E71720FFF716FDDDE71720F0
:1010F000FFF712FDD9E71720FFF70EFDD5E72820EF
:10110000FFF70AFDD1E72820FFF706FDCDE72820ED
:10111000FFF702FDC9E72820FFF7FEFCC5E72820FE
:10112000FFF7FAFCC1E72820FFF7F6FCBDE7000057
:101130000F2838D8DFE800F0080B0E1114171A1D1D
:10114000202326292C2F3235174B19607047174B57
:1011500019607047164B19607047164B196070473D
:10116000154B19607047154B19607047144B196087
:101170007047144B19607047134B19607047134B3D
:1011800019607047124B19607047124B1960704715
:10119000114B19607047114B19607047104B196063
:1011A0007047104B1960704738010020540100202F
:1011B000580100205C010020600100206401002033
:1011C000680100206C0100207001002074010020E3
:1011D0003C01002040010020440100204801002083
:1011E0004C0100205001002008B5054B1B6803B1DD
:1011F0009847044A536943F00103536108BD00BF97
:1012000038010020003C014008B5054B1B6803B1C4
:101210009847044A536943F00203536108BD00BF75
:1012200054010020003C014008B5054B1B6803B188
:101230009847044A536943F00403536108BD00BF53
:1012400058010020003C014008B5054B1B6803B164
:101250009847044A536943F00803536108BD00BF2F
:101260005C010020003C014008B5054B1B6803B140
:101270009847044A536943F01003536108BD00BF07
:1012800060010020003C014008B5174B1B6803B10A
:101290009847164A536943F020035361144B1B6867
:1012A00003B19847114A536943F040035361114B0E
:1012B0001B6803B198470D4A536943F0800353619B
:1012C0000D4B1B6803B19847084A536943F4807378
:1012D00053610A4B1B6803B19847044A536943F4AE
:1012E0000073536108BD00BF64010020003C014051
:1012F000680100206C0100207001002074010020B2
:1013000008B51B4B1B6803B198471A4A536943F44D
:1013100080635361184B1B6803B19847154A5369A2
:1013200043F400635361154B1B6803B19847114A9E
:10133000536943F480535361114B1B6803B19847C1
:101340000C4A536943F4005353610E4B1B6803B1BD
:101350009847084A536943F4804353610A4B1B681A
:1013600003B19847034A536943F40043536108BDEE
:101370003C010020003C01404001002044010020CD
:10138000480100204C0100205001002008B5FFF763
:101390004FFB00210120FFF793FB01210846FFF7D7
:1013A0008FFB08210420FFF78BFB1220FFF7B4FB13
:1013B000244B5A6822F020025A60D3F82C2142F4C0
:1013C0008032C3F82C21D3F82C2142F40032C3F828
:1013D0002C215A6842F480725A605A6822F0807256
:1013E0005A605A6822F000725A609A6822F40062C9
:1013F0009A609A6822F080529A609A6822F00052AD
:101400009A609A6822F002029A605A6842F4006276
:101410005A605A6822F480325A605A6842F4005284
:101420005A605A6822F480425A605A6822F4004294
:101430005A60DA6A22F47002DA629A6842F00102B3
:101440009A6008BD00200140092859D8072957D8BB
:1014500038B50D46044609280BD8DFE800F0051B17
:1014600021272D33393F454B002201212548FFF725
:1014700055FD254B1A6904EB44010720884022EAF8
:1014800000021A611A6905FA01F122EA01011961E3
:101490005C6338BD012211461A48FFF73FFDE8E7BB
:1014A000022201211748FFF739FDE2E7032201215B
:1014B0001448FFF733FDDCE7042201211148FFF750
:1014C0002DFDD6E7052201210E48FFF727FDD0E7C5
:1014D000062201210B48FFF721FDCAE7072201215F
:1014E0000848FFF71BFDC4E7002202210548FFF76B
:1014F00015FDBEE7012202210248FFF70FFDB8E704
:10150000704700BF0C00002000200140064B5863CC
:10151000302301E0013BDBB2002BFBD1024A936890
:1015200043F08043936070470020014008B5FFF707
:10153000EDFF064B1B6813F0020FFAD0034B1A683D
:1015400022F002021A60D86C08BD00BF00200140E2
:1015500008B5074B1B684BB19847064B1A6822F039
:1015600010021A601A6822F002021A6008BD00BF59
:10157000840100200020014010B5164C0122617842
:101580002078FFF7FBFB41F69C00FFF783F8002271
:1015900061782078FFF7F2FB4120FFF77BF801220A
:1015A00061782078FFF7EAFB41F69C00FFF772F8BC
:1015B000002261782078FFF7E1FB41F69C00FFF7FD
:1015C00069F8012261782078FFF7D8FB0248FFF71D
:1015D00061F810BD240000200071020038B50446F7
:1015E0000D46054B0122D9789878FFF7C7FB2946AD
:1015F0002046FFF7D9F938BD2400002038B504464D
:101600000D46054B0022D9789878FFF7B7FB29469D
:101610002046FFF7C9F938BD2400002070B5044604
:10162000134D144E6A7829783046FFF777FCEA7834
:10163000A9783046FFF772FCFFF720F82046FFF745
:10164000B5F8FFF799FF11212046FFF7D7FF0A48A9
:10165000FFF720F83A212046FFF7D0FF052120466A
:10166000FFF7BCFF29212046FFF7C8FF70BD00BF70
:101670002400002014000020840D0F002DE9F0410B
:101680000546884617462A21FFF7B8FF002128465D
:10169000FFF7A4FF00212846FFF7A0FF00212846FE
:1016A000FFF79CFF7F212846FFF798FF2B21284654
:1016B000FFF7A4FF00212846FFF790FF00212846EE
:1016C000FFF78CFF00212846FFF788FF9F2128465F
:1016D000FFF784FF2C212846FFF790FF00240AE043
:1016E00038F81460310A2846FFF778FFF1B228462F
:1016F000FFF774FF01347B1EA342F1D8BDE8F081EF
:101700002DE9F041BDF81880142901DC132A01DD10
:10171000BDE8F0811F460546C1F11403DBB2C2F1FA
:101720001304E4B203EB43035A0056B2E40064B27C
:101730002A21FFF763FF00212846FFF74FFFB6B2CB
:1017400031462846FFF74AFF00212846FFF746FFAB
:10175000F11D89B22846FFF741FF2B212846FFF7EC
:101760004DFF00212846FFF739FFA4B22146284645
:10177000FFF734FF00212846FFF730FF04F108018E
:1017800089B22846FFF72AFF2C212846FFF736FFAB
:10179000062625E04FEA18212846FFF71FFF5FFACB
:1017A00088F12846FFF71AFF013C64B2002C15DBD4
:1017B000A7F12003C3EBC3030B4A13449A5D012333
:1017C000A3401A402241012AE4D000212846FFF715
:1017D00005FF00212846FFF701FFE5E7013E76B24D
:1017E000002E95DB0724E1E7503600082DE9F04391
:1017F00083B081460D4690461E46BDF828700024F1
:101800000AE000975BB2424629464846FFF778FF58
:1018100001356DB2013464B2335D002BF1D103B0F8
:10182000BDE8F08308B5012241780078FFF7A6FAF9
:1018300008BD08B50022C1788078FFF79FFA08BD7F
:1018400008B50122C1788078FFF798FA08BD08B57D
:10185000002241780078FFF791FA08BDF8B50546F7
:101860000C461E4642F020070846FFF7E2FF3946C5
:101870002846FFF799F831462846FFF795F82046A5
:10188000FFF7DEFFF8BD2DE9F041054688461F460B
:101890009DF8186042F020040846FFF7CAFF214671
:1018A0002846FFF781F8002405E0395D2846FFF758
:1018B0007BF80134E4B2B442F7D34046FFF7C0FFEF
:1018C000BDE8F08170B505460C4616460846FFF7A0
:1018D000B0FF31462846FFF767F82846FFF790F833
:1018E000C5B22046FFF7ACFF284670BD70B505466F
:1018F0000C46204E4A7809783046FFF70FFBE27815
:10190000A1783046FFF70AFBFEF7B8FE2846FEF73F
:101910004DFF2046FFF786FF00231A462146284642
:10192000FFF79CFF0023012221462846FFF796FF80
:101930000023022221462846FFF790FF03231A4680
:1019400021462846FFF78AFF002304222146284625
:10195000FFF784FF0023052221462846FFF77EFF7C
:101960000E23062221462846FFF778FF2046FFF780
:101970006EFF70BD14000020F0B583B005460C4624
:1019800016461F460846FFF74DFF3B4605222146F7
:101990002846FFF763FF05230093334610222146B4
:1019A0002846FFF770FF002221462846FFF78AFFEE
:1019B00040F00203DBB2002221462846FFF74EFF2B
:1019C0002046FFF744FF03B0F0BD000008B5013822
:1019D00007280AD8DFE800F0040A10161C22282E77
:1019E0000D2203211648FFF799FA08BD0E220321A4
:1019F0001348FFF793FAF8E70F2203211048FFF787
:101A00008DFAF2E7032201210D48FFF787FAECE790
:101A1000042201210A48FFF781FAE6E705220121A5
:101A20000748FFF77BFAE0E7062201210448FFF7A9
:101A300075FADAE7072201210148FFF76FFAD4E7C8
:101A40001400002008B5013807280AD8DFE800F0A4
:101A5000040A10161C22282E01220D210320FFF754
:101A60008DF908BD01220E210320FFF787F9F8E761
:101A700001220F210320FFF781F9F2E70122032160
:101A80001046FFF77BF9ECE7012204211046FFF72F
:101A900075F9E6E7012205211046FFF76FF9E0E747
:101AA000012206211046FFF769F9DAE70122072132
:101AB0001046FFF763F9D4E708B5013807280AD8BC
:101AC000DFE800F0040A10161C22282E00220D2147
:101AD0000320FFF753F908BD00220E210320FFF772
:101AE0004DF9F8E700220F210320FFF747F9F2E74D
:101AF000002203210120FFF741F9ECE70022042135
:101B00000120FFF73BF9E6E7002205210120FFF75E
:101B100035F9E0E7002206210120FFF72FF9DAE787
:101B2000002207210120FFF729F9D4E708B5084A68
:101B3000137A0133DBB213720C2B04D04FF496707E
:101B4000FEF7A8FD08BD134600221A72F6E700BF93
:101B50008801002010B50446FEF790FD0122E178CF
:101B6000A078FFF755FAE1780120FFF707FA074957
:101B7000E078FFF7DDFAFFF709FC01212078FFF795
:101B800063FC01216078FFF75FFC10BD2D1B00088E
:101B900070B504460E460878FFF7C8FC2C4D286047
:101BA0007078FFF7C3FC6860286840F69E4398424F
:101BB00027D800F009FB22A3D3E9002300F0A8FCFA
:101BC00000F08EFD2860224B586840F69E439842F4
:101BD00029D9A0F69E4000F0F7FA1BA3D3E9002311
:101BE00000F096FC00221B4B00F0B2F900F078FDEB
:101BF000174B5860164B93E8070084E8070020460F
:101C000070BDA0F69E4000F0DFFA0FA3D3E90023D9
:101C100000F07EFC00220F4B00F09AF900F060FD0E
:101C20000B4B1860CFE700F0CFFA05A3D3E90023F0
:101C300000F06EFC00F054FD054B5860DAE700BF81
:101C40006666666666E6414033333333333323409A
:101C500088010020008056407047000010B588B011
:101C6000A44B93E8030006908DF81C100120FFF7A9
:101C7000ADFE0220FFF7AAFE0320FFF7A7FE9E4C51
:101C800021460220FFF732FE0A2306AA214602203F
:101C9000FFF772FE9948FFF75DFF0120FFF7BEFCDA
:101CA0004FF4A04296490120FFF7E8FC4FF6E0749C
:101CB0000094944B032201210846FFF797FD0094FE
:101CC000914B042201210846FFF790FD7BE04FF67F
:101CD000E07300938D4B03220C210120FFF786FD5A
:101CE0009DF81430002B5CD0022B00F0B780042B41
:101CF00000F0C780062B00F0D780082B00F0E780AB
:101D00000A2B60D10120FFF79DFE0220FFF7D4FED1
:101D10000320FFF7D1FE4FF6E07300937C4B0422C3
:101D20000C210120FFF762FD4DE04FF6E0730093B8
:101D3000784B03220C210120FFF758FDD0E74FF626
:101D4000E0730093744B03220C210120FFF74EFD3A
:101D5000C6E74FF6E0730093704B03220C2101207D
:101D6000FFF744FDBCE74FF6E07300936C4B032292
:101D70000C210120FFF73AFDB2E74FF6E073009324
:101D8000684B03220C210120FFF730FDA8E74FF636
:101D9000E0730093644B03220C210120FFF726FD22
:101DA0009EE70220FFF74EFE0120FFF785FE03208D
:101DB000FFF782FE4FF6E07300935C4B04220C2188
:101DC0000120FFF713FD4D4903A8FFF7E1FE039B38
:101DD000052B03D8049A052A7FF679AFA3F1AF0249
:101DE000052A04D80499B42901D8AE299DD8A3F1B5
:101DF000AA010A2902D804990529A0D9052B04D8DB
:101E00000499B42901D8AE29A3D8A3F15501052915
:101E100002D804980528A6D9052904D80499B4291C
:101E200001D8AE29A9D8052A04D8049A5A2A01D87B
:101E3000542AACD8052B3FF653AF049B5A2B3FF6E0
:101E40004FAF542B7FF64CAF4FF6E0730093384BF7
:101E500003220C210120FFF7C9FC41E70320FFF713
:101E6000F1FD0220FFF728FE0120FFF725FE4FF6C7
:101E7000E07300932F4B04220C210120FFF7B6FCE6
:101E8000A1E70320FFF7DEFD0220FFF715FE01208A
:101E9000FFF712FE4FF6E0730093274B04220C214C
:101EA0000120FFF7A3FC8EE70120FFF7CBFD022006
:101EB000FFF702FE0320FFF7FFFD4FF6E0730093EC
:101EC0001E4B04220C210120FFF790FC7BE7012030
:101ED000FFF7B8FD0220FFF7EFFD0320FFF7ECFD51
:101EE0004FF6E0730093164B04220C210120FFF7FC
:101EF0007DFC68E7F0380008280000202C00002056
:101F0000F8380008F8D800080CD900081CD90008D7
:101F1000A4D9000828D9000834D9000840D90008FD
:101F20004CD9000858D9000864D900087CD90008A9
:101F300070D9000884D900088CD9000894D9000809
:101F40009CD9000881F0004102E000BF83F000430B
:101F500030B54FEA41044FEA430594EA050F08BF44
:101F600090EA020F1FBF54EA000C55EA020C7FEA08
:101F7000645C7FEA655C00F0E2804FEA5454D4EB85
:101F80005555B8BF6D420CDD2C4480EA020281EA4F
:101F9000030382EA000083EA010180EA020281EA87
:101FA0000303362D88BF30BD11F0004F4FEA0131D9
:101FB0004FF4801C4CEA113102D0404261EB4101E8
:101FC00013F0004F4FEA03334CEA133302D052426E
:101FD00063EB430394EA050F00F0A780A4F101042A
:101FE000D5F1200E0DDB02FA0EFC22FA05F2801864
:101FF00041F1000103FA0EF2801843FA05F359414A
:102000000EE0A5F120050EF1200E012A03FA0EFCC8
:1020100028BF4CF0020C43FA05F3C01851EBE371F2
:1020200001F0004507D54FF0000EDCF1000C7EEB0F
:1020300000006EEB0101B1F5801F1BD3B1F5001F4D
:102040000CD349085FEA30004FEA3C0C04F101046C
:102050004FEA445212F5800F80F09A80BCF1004F95
:1020600008BF5FEA500C50F1000041EB045141EA17
:10207000050130BD5FEA4C0C404141EB010111F418
:10208000801FA4F10104E9D191F0000F04BF0146C3
:102090000020B1FA81F308BF2033A3F10B03B3F1A1
:1020A00020020CDA0C3208DD02F1140CC2F10C0231
:1020B00001FA0CF021FA02F10CE002F11402D8BF8F
:1020C000C2F1200C01FA02F120FA0CFCDCBF41EA5B
:1020D0000C019040E41AA2BF01EB0451294330BD2A
:1020E0006FEA04041F3C1CDA0C340EDC04F1140407
:1020F000C4F1200220FA04F001FA02F340EA0300DE
:1021000021FA04F345EA030130BDC4F10C04C4F123
:10211000200220FA02F001FA04F340EA0300294603
:1021200030BD21FA04F0294630BD94F0000F83F44D
:10213000801306BF81F480110134013D4EE77FEA30
:10214000645C18BF7FEA655C29D094EA050F08BF7C
:1021500090EA020F05D054EA000C04BF194610465D
:1021600030BD91EA030F1EBF0021002030BD5FEAA1
:10217000545C05D14000494128BF41F0004130BDC9
:1021800014F580043CBF01F5801130BD01F000451D
:1021900045F0FE4141F470014FF0000030BD7FEA90
:1021A000645C1ABF194610467FEA655C1CBF0B468B
:1021B000024650EA013406BF52EA033591EA030FA2
:1021C00041F4002130BD00BF90F0000F04BF00219A
:1021D000704730B54FF4806404F132044FF00005CD
:1021E0004FF0000150E700BF90F0000F04BF002146
:1021F000704730B54FF4806404F1320410F00045AC
:1022000048BF40424FF000013EE700BF42004FEAA6
:10221000E2014FEA31014FEA02701FBF12F07F4323
:1022200093F07F4F81F06051704732F07F4208BFDA
:10223000704793F07F4F04BF41F40021704730B5E1
:102240004FF4607401F0004521F000411CE700BF2D
:1022500050EA010208BF704730B54FF000050AE0B0
:1022600050EA010208BF704730B511F0004502D5B1
:10227000404261EB41014FF4806404F132045FEAB3
:10228000915C3FF4D8AE4FF003025FEADC0C18BF5C
:1022900003325FEADC0C18BF033202EBDC02C2F14E
:1022A000200300FA03FC20FA02F001FA03FE40EAE0
:1022B0000E0021FA02F11444BDE600BF70B54FF0E4
:1022C000FF0C4CF4E06C1CEA11541DBF1CEA1355C2
:1022D00094EA0C0F95EA0C0F00F0DEF82C4481EA2A
:1022E000030621EA4C5123EA4C5350EA013518BF4A
:1022F00052EA033541F4801143F4801338D0A0FB37
:1023000002CE4FF00005E1FB02E506F00042E0FBE3
:1023100003E54FF00006E1FB03569CF0000F18BFE9
:102320004EF0010EA4F1FF04B6F5007F64F5407491
:1023300004D25FEA4E0E6D4146EB060642EAC62124
:1023400041EA55514FEAC52040EA5E504FEACE2E91
:10235000B4F1FD0C88BFBCF5E06F1ED8BEF1004F94
:1023600008BF5FEA500E50F1000041EB045170BD10
:1023700006F0004646EA010140EA020081EA030154
:10238000B4EB5C04C2BFD4EB0C0541EA045170BD50
:1023900041F480114FF0000E013C00F3AB8014F1CA
:1023A000360FDEBF002001F0004170BDC4F1000413
:1023B000203C35DA0C341BDC04F11404C4F1200594
:1023C00000FA05F320FA04F001FA05F240EA0200EF
:1023D00001F0004221F0004110EBD37021FA04F625
:1023E00042EB06015EEA430E08BF20EAD37070BDDF
:1023F000C4F10C04C4F1200500FA04F320FA05F03E
:1024000001FA04F240EA020001F0004110EBD3703F
:1024100041F100015EEA430E08BF20EAD37070BDAF
:10242000C4F1200500FA05F24EEA020E20FA04F388
:1024300001FA05F243EA020321FA04F001F0004137
:1024400021FA04F220EA020000EBD3705EEA430EA8
:1024500008BF20EAD37070BD94F0000F0FD101F0D7
:102460000046400041EB010111F4801F08BF013C10
:10247000F7D041EA060195F0000F18BF704703F04E
:102480000046520043EB030313F4801F08BF013DD5
:10249000F7D043EA0603704794EA0C0F0CEA135591
:1024A00018BF95EA0C0F0CD050EA410618BF52EA4B
:1024B0004306D1D181EA030101F000414FF0000051
:1024C00070BD50EA410606BF1046194652EA43065F
:1024D00019D094EA0C0F02D150EA013613D195EAD3
:1024E0000C0F05D152EA03361CBF104619460AD11B
:1024F00081EA030101F0004141F0FE4141F4700125
:102500004FF0000070BD41F0FE4141F4780170BD14
:1025100070B54FF0FF0C4CF4E06C1CEA11541DBF79
:102520001CEA135594EA0C0F95EA0C0F00F0A7F87B
:10253000A4EB050481EA030E52EA03354FEA0131A8
:1025400000F088804FEA03334FF0805545EA1313BB
:1025500043EA12634FEA022245EA111545EA106583
:102560004FEA00260EF000419D4208BF964244F11A
:10257000FD0404F5407402D25B084FEA3202B61A39
:1025800065EB03055B084FEA32024FF480104FF40D
:10259000002CB6EB020E75EB030E22BFB61A754681
:1025A00040EA0C005B084FEA3202B6EB020E75EB14
:1025B000030E22BFB61A754640EA5C005B084FEA7C
:1025C0003202B6EB020E75EB030E22BFB61A754649
:1025D00040EA9C005B084FEA3202B6EB020E75EB54
:1025E000030E22BFB61A754640EADC0055EA060E15
:1025F00018D04FEA051545EA16754FEA06164FEA58
:10260000C30343EA52734FEAC2025FEA1C1CC0D103
:1026100011F4801F0BD141EA00014FF000004FF090
:10262000004CB6E711F4801F04BF01430020B4F151
:10263000FD0C88BFBCF5E06F3FF6AFAEB5EB030C09
:1026400004BFB6EB020C5FEA500C50F1000041EB06
:10265000045170BD0EF0004E4EEA113114EB5C04D3
:10266000C2BFD4EB0C0541EA045170BD41F48011A6
:102670004FF0000E013C90E645EA060E8DE60CEAAE
:10268000135594EA0C0F08BF95EA0C0F3FF43BAFCB
:1026900094EA0C0F0AD150EA01347FF434AF95EA82
:1026A0000C0F7FF425AF104619462CE795EA0C0F66
:1026B00006D152EA03353FF4FDAE1046194622E733
:1026C00050EA410618BF52EA43067FF4C5AE50EA0D
:1026D00041047FF40DAF52EA43057FF4EBAE12E7FD
:1026E0004A0011D212F5001211D20DD56FF4787391
:1026F000B3EB62520ED44FEAC12343F0004343EAE6
:10270000505323FA02F070474FF00000704750EA30
:10271000013002D14FF0FF3070474FF0000070479A
:1027200080F0004002E000BF81F0004142001FBF86
:102730005FEA410392EA030F7FEA226C7FEA236C8F
:102740006AD04FEA1262D2EB1363C1BFD218414084
:1027500048404140B8BF5B42192B88BF704710F01A
:10276000004F40F4000020F07F4018BF404211F0BD
:10277000004F41F4000121F07F4118BF494292EA25
:10278000030F3FD0A2F1010241FA03FC10EB0C0051
:10279000C3F1200301FA03F100F0004302D54942DE
:1027A00060EB4000B0F5000F13D3B0F1807F06D38B
:1027B00040084FEA310102F10102FE2A51D2B1F183
:1027C000004F40EBC25008BF20F0010040EA030078
:1027D0007047490040EB000010F4000FA2F1010225
:1027E000EDD1B0FA80FCACF1080CB2EB0C0200FAAF
:1027F0000CF0AABF00EBC25052421843BCBFD040FD
:102800001843704792F0000F81F4000106BF80F476
:1028100000000132013BB5E74FEA41037FEA226C39
:1028200018BF7FEA236C21D092EA030F04D092F004
:10283000000F08BF0846704790EA010F1CBF002038
:10284000704712F07F4F04D1400028BF40F0004095
:10285000704712F100723CBF00F50000704700F0B5
:10286000004343F0FE4040F4000070477FEA2262DC
:1028700016BF08467FEA23630146420206BF5FEAAD
:10288000412390EA010F40F4800070474FF00003AD
:1028900004E000BF10F0004348BF40425FEA000C74
:1028A00008BF704743F0964301464FF000001CE01C
:1028B00050EA010208BF70474FF000030AE000BF72
:1028C00050EA010208BF704711F0004302D54042B0
:1028D00061EB41015FEA010C02BF84460146002022
:1028E00043F0B64308BFA3F18053A3F50003BCFA3D
:1028F0008CF2083AA3EBC25310DB01FA02FC6344EA
:1029000000FA02FCC2F12002BCF1004F20FA02F2F0
:1029100043EB020008BF20F00100704702F12002E3
:1029200001FA02FCC2F1200250EA4C0021FA02F244
:1029300043EB020008BF20EADC7070474FF0FF0C49
:102940001CEAD0521EBF1CEAD15392EA0C0F93EA44
:102950000C0F6FD01A4480EA010C400218BF5FEAE6
:1029600041211ED04FF0006343EA501043EA511159
:10297000A0FB01310CF00040B1F5000F3EBF490053
:1029800041EAD3715B0040EA010062F17F02FD2A57
:102990001DD8B3F1004F40EBC25008BF20F001003A
:1029A000704790F0000F0CF0004C08BF49024CEA51
:1029B000502040EA51207F3AC2BFD2F1FF0340EAE3
:1029C000C250704740F400004FF00003013A5DDC54
:1029D00012F1190FDCBF00F000407047C2F1000295
:1029E000410021FA02F1C2F1200200FA02FC5FEA82
:1029F000310040F1000053EA4C0308BF20EADC70CC
:102A0000704792F0000F00F0004C02BF400010F43D
:102A1000000F013AF9D040EA0C0093F0000F01F0EA
:102A2000004C02BF490011F4000F013BF9D041EA0C
:102A30000C018FE70CEAD15392EA0C0F18BF93EA0E
:102A40000C0F0AD030F0004C18BF31F0004CD8D138
:102A500080EA010000F00040704790F0000F17BFBF
:102A600090F0004F084691F0000F91F0004F14D005
:102A700092EA0C0F01D142020FD193EA0C0F03D15D
:102A80004B0218BF084608D180EA010000F0004060
:102A900040F0FE4040F40000704740F0FE4040F43B
:102AA000400070474FF0FF0C1CEAD0521EBF1CEADA
:102AB000D15392EA0C0F93EA0C0F69D0A2EB0302F8
:102AC00080EA010C49024FEA402037D04FF0805392
:102AD00043EA111143EA10130CF000408B4238BF57
:102AE0005B0042F17D024FF4000C8B4224BF5B1A65
:102AF00040EA0C00B3EB510F24BFA3EB510340EAB3
:102B00005C00B3EB910F24BFA3EB910340EA9C0060
:102B1000B3EBD10F24BFA3EBD10340EADC001B01D0
:102B200018BF5FEA1C1CE0D1FD2A3FF650AF8B4274
:102B300040EBC25008BF20F0010070470CF0004C81
:102B40004CEA50207F32C2BFD2F1FF0340EAC250AC
:102B5000704740F400004FF00003013A37E792F06D
:102B6000000F00F0004C02BF400010F4000F013ACB
:102B7000F9D040EA0C0093F0000F01F0004C02BFC6
:102B8000490011F4000F013BF9D041EA0C0195E72F
:102B90000CEAD15392EA0C0F08D142027FF47DAFC8
:102BA00093EA0C0F7FF470AF084676E793EA0C0FB8
:102BB00004D14B023FF44CAF08466EE730F0004CB6
:102BC00018BF31F0004CCAD130F000427FF45CAF46
:102BD00031F000437FF43CAF5FE700BF42000ED20C
:102BE000B2F1FE4F0BD34FF09E03B3EB126209D448
:102BF0004FEA002343F0004323FA02F070474FF0FE
:102C00000000704712F1610F01D1420202D14FF072
:102C1000FF3070474FF00000704700BF014B18684D
:102C2000704700BF3000002030B5141E05469BB031
:102C3000184605DA8B232B604FF0FF301BB030BDF8
:102C40004FF40273ADF80C3014BF04F1FF33234688
:102C5000029305934FF6FF7300910491ADF80E3087
:102C600002461E9B6946284600F072F8431CBCBF12
:102C70008B232B60002CE1D0009B00221A70DDE733
:102C800007B5009313460A46014603480068FFF75C
:102C9000CBFF03B05DF804FB300000202DE9F047C6
:102CA0008E689E4282460C469046994637D88A895D
:102CB00012F4906F31D0256809696F1A6569022393
:102CC00005EB450595FBF3F509F101033B449D42F6
:102CD00038BF1D46530530D5294600F07BFB06461C
:102CE00050B90C23CAF80030A38943F04003A381F4
:102CF0004FF0FF30BDE8F0873A46216900F0F8FA5E
:102D0000A38923F4906343F08003A3812661656166
:102D10003E44ED1B2660A5604E464E4500D94E460A
:102D200032464146206800F0EEFAA3689B1BA36080
:102D300023681E4426600020DCE72A4600F0A4FB3E
:102D400006460028E2D12169504600F0F5FAC8E7AE
:102D50002DE9F04F9DB0804603938B891D060C46EC
:102D600016460FD50B696BB9402100F033FB20608C
:102D7000206128B90C23C8F800304FF0FF30C7E0BD
:102D8000402363610023099320238DF829303023E9
:102D90008DF82A304FF0010B37463D4615F8013BC0
:102DA0000BB1252B3ED1B7EB060A0BD0534632466A
:102DB00021464046FFF772FF013000F0A480099BD6
:102DC000534409933B78002B00F09D8000234FF083
:102DD000FF32CDE90523049307938DF853301A93FE
:102DE0002F46052217F8011B4F4800F031FA049BCB
:102DF000D0B9D90644BF20228DF853201A0744BF0A
:102E00002B228DF853202A782A2A15D0079A2F468C
:102E100000200A25394611F8013B303B092B4DD9DA
:102E2000B8B10FE02F46B8E73F4A801A0BFA00F01E
:102E3000184304903D46D3E7039A111D126803918D
:102E4000002A01DB079204E0524243F0020307929A
:102E500004933B782E2B0CD17B782A2B33D1039B08
:102E60001A1D1B680392002BB8BF4FF0FF330237C7
:102E700005932E4D39780322284600F0E9F938B140
:102E80004023401B03FA00F0049B034301370493E3
:102E9000397827488DF8281006227E1C00F0D8F9D2
:102EA000002838D0234B13BB039B073323F00703C1
:102EB00008330393099B4B4409936DE705FB0232EA
:102EC00001200F46A6E700230137059319460A257E
:102ED000384610F8012B303A092A03D9002BC8D004
:102EE0000591C6E705FB012101230746F0E703AB87
:102EF00000932246104B04A94046AFF30080B0F186
:102F0000FF3F8146D6D1A3895B063FF536AF0998CE
:102F10001DB0BDE8F08F03AB00932246064B04A919
:102F2000404600F081F8EAE7ACD90008B2D90008C1
:102F3000B6D90008000000009D2C00082DE9F047DC
:102F400091461F468A680B69DDF820809342B8BF1E
:102F50001346C9F8003091F8432006460C4612B1DA
:102F60000133C9F800302368990642BFD9F8003010
:102F70000233C9F80030256815F0060507D104F1C1
:102F8000190AE368D9F800209B1AAB4228DC94F8B0
:102F900043302268003318BF012392062DD404F178
:102FA000430239463046C047013020D02368E568E7
:102FB000D9F8002003F00603042B08BFAD1AA3685C
:102FC00022690CBF25EAE57500259342C4BF9B1A10
:102FD000ED184FF000091A344D451AD1002008E0D1
:102FE0000123524639463046C047013003D14FF0E5
:102FF000FF30BDE8F0870135C3E7E1185A1C3020E7
:1030000081F84300224494F8451082F843100233BB
:10301000C5E70123224639463046C0470130E6D095
:1030200009F10109D8E700002DE9F04301F1430C53
:103030000C46097E85B06E291746064698460C9ABE
:1030400000F0B38022D8632936D00AD8002900F0D6
:10305000B980582900F0838004F1420584F84210B9
:1030600032E0642901D06929F6D120681368050689
:1030700003F104012AD51B681160002B03DA2D220D
:103080005B4284F843206F480A2239E0732900F03C
:103090009D8008D86F2920D07029DDD1236843F0A6
:1030A0002003236003E0752917D07829D4D1782331
:1030B00084F84530644855E01368191D1B68116099
:1030C00004F1420584F8423001238CE01B68116052
:1030D00010F0400F18BF1BB2CFE713682568181D0A
:1030E0001060280601D51B6802E06806FBD51B8826
:1030F00054486F2914BF0A220822002184F8431083
:103100006568A560002DC0F29580216821F004015A
:103110002160002B3DD1002D40F08E806546082AAD
:103120000BD12368DB0708D5236962689A42DEBFAA
:10313000302305F8013C05F1FF35ACEB05032361B5
:10314000CDF800803B4603AA21463046FFF7F6FE45
:1031500001304DD14FF0FF3005B0BDE8F083394864
:1031600084F84510136821681D1D1B6815600A0648
:103170000BD5CA0744BF41F0200121601BB922686A
:1031800022F0200222601022B7E74D0648BF9BB212
:10319000EFE76546B3FBF2F102FB1133C35C05F8C0
:1031A000013D0B460029F5D1B9E71368256861692F
:1031B000181D106028061B6801D5196002E06A0618
:1031C000FBD51980002323616546B9E71368191DF3
:1031D00011601D6862680021284600F039F808B1C6
:1031E000401B606063682361002384F84330A7E7D5
:1031F00023692A4639463046C0470130AAD02368A1
:103200009B0713D4E068039B9842B8BF1846A3E716
:1032100001234A4639463046C04701309AD001352D
:10322000E368039A9B1AAB42F2DCEBE7002504F15A
:103230001909F5E7002BACD1037884F8423004F18A
:1032400042056CE7BDD90008CED900080000000097
:1032500001F0FF01102A2BDB10F0070F08D010F847
:10326000013B013A8B422DD010F0070F42B3F6D14B
:10327000F0B441EA012141EA014122F007047FF064
:1032800000070023F0E80256083C85EA010586EABB
:10329000010685FA47F5A3FA87F586FA47F6A5FAF7
:1032A00087F68EB9EED1F0BC01F0FF0102F0070203
:1032B00032B110F8013B013A83EA010313B1F8D1AE
:1032C0000020704701387047002D06BF354603388F
:1032D000073815F0010F07D1013015F4807F02BFC8
:1032E000013015F4C03F0130F0BC0138704700BF19
:1032F00010B5431E0A44914200D110BD11F8014B94
:1033000003F8014FF7E7884210B501EB020307D835
:10331000421E99420AD011F8014B02F8014FF8E71A
:103320008342F5D98118D21AD34200D110BD13F8C7
:10333000014D01F8014DF7E738B50546002945D0A4
:1033400051F8043C0C1F002BB8BFE41800F0D2F871
:103350001F4A1368104633B9636014602846BDE8FD
:10336000384000F0C8B8A3420CD9216862189342D3
:1033700004BF1A685B68636004BF5218226004606F
:10338000ECE713465A680AB1A242FAD919685818EC
:10339000A0420BD120680144581882421960DDD147
:1033A000106852685A6001441960D7E702D90C23AB
:1033B0002B60D3E7206821188A4204BF1168526845
:1033C000626004BF091821605C60C7E738BD00BFB8
:1033D0007801002070B5CD1C25F0030508350C2DB3
:1033E00038BF0C25002D064601DBA94203D90C236A
:1033F0003360002070BD00F07DF8214A146821463A
:1034000091B9204C23681BB9304600F063F8206066
:103410002946304600F05EF8431C24D10C2333606B
:10342000304600F068F8E4E70B685B1B18D40B2B00
:103430000FD90B60CD50CC18304600F05CF804F189
:103440000B00231D20F00700C31AD3D05A42E250CC
:10345000D0E78C424B6816BF636013600C46EBE705
:103460000C464968CCE7C41C24F00304A04205D0F4
:10347000211A304600F02EF80130CFD02560DBE76E
:10348000780100207C010020F8B5074614460E465E
:1034900021B91146BDE8F840FFF79CBF22B9FFF7FC
:1034A0004BFF25462846F8BD00F026F8A0420FD273
:1034B00021463846FFF78EFF05460028F2D03146F8
:1034C0002246FFF715FF31463846FFF735FFE9E79B
:1034D0003546E7E738B5064C002305460846236025
:1034E000FCF7A0FF431C02D1236803B12B6038BD59
:1034F000800100207047704751F8043C181F002BD2
:10350000BCBF0B58C0187047537461636B20667260
:10351000616D653A0A000000205230203D202025D0
:103520003038580A00000000205231203D2020256C
:103530003038580A00000000205232203D2020255B
:103540003038580A00000000205233203D2020254A
:103550003038580A0000000020523132203D20252A
:103560003038580A00000000204C52203D20202511
:103570003038580A00000000205043203D2020250C
:103580003038580A0000000020505352203D2025BA
:103590003038580A000000004653522F4641523A34
:1035A0000A0000002043465352203D202025303899
:1035B000580A00002048465352203D20202530382C
:1035C000580A00002044465352203D202025303820
:1035D000580A00002041465352203D202025303813
:1035E000580A0000204D4D464152203D20253038DC
:1035F000580A00002042464152203D202025303804
:10360000580A00004D6973630A000000204C522FD5
:103610004558435F52455455524E3D202530385849
:103620000A0000005B486172644661756C745D0A53
:10363000000000005B4275734661756C745D0A00A2
:103640005B55736167654661756C745D0A000000C7
:1036500000000000000000040404040400040A0A3E
:103660000A000000000A0A1F0A1F0A0A041E050EAB
:10367000140F04031308040219180609050215099A
:1036800016060402000000000804020202040802F8
:10369000040808080402000A041F040A00000404C5
:1036A0001F040400000000000604020000001F00C8
:1036B00000000000000000060600100804020100DF
:1036C0000E11191513110E0406040404040E0E1134
:1036D000100804021F1F08040810110E080C0A0924
:1036E0001F08081F010F1010110E0C02010F1111FD
:1036F0000E1F1008040202020E11110E11110E0EFF
:1037000011111E1008060006060006060010080427
:10371000020408101008040204081000001F001F13
:103720000000010204080402010E11100804000444
:103730000E11101615150E0E1111111F11110F116A
:10374000110F11110F0E11010101110E07091111B5
:103750001109071F01010F01011F1F0101070101CD
:10376000010E11010119110E1111111F1111110E6C
:1037700004040404040E1C080808080906110905BD
:10378000030509110101010101011F111B1511118F
:103790001111111113151911110E11111111110E11
:1037A0000F11110F0101010E1111111509160F1141
:1037B000110F0509111E01010E10100F1F04040442
:1037C0000404041111111111110E11111111110A1A
:1037D0000411111115151B1111110A040A111111EF
:1037E000110A040404041F10080402011F1C04042D
:1037F0000404041C0001020408100007040404046B
:103800000407040A11000000000000000000001F6F
:103810000204080000000000000E101E111E01012D
:103820000D1311110F00000E0101110E10101619C9
:1038300011111E00000E111F010E0C1202070202D0
:103840000200001E111E100C01010D1311111104B4
:1038500000060404040E08000C08080906020212FF
:103860000A060A120604040404040E00000A1515D0
:10387000111100000D1311111100000E1111110E84
:1038800000000F110F0101000016191E101000009A
:103890000D1301010100000E010E100F02020702BC
:1038A00002120C0000111111191600001111110A59
:1038B000040000111115150A0000110A040A110074
:1038C0000011111E100E00001F0804021F0804043E
:1038D00002040408040404040404040204040804A4
:1038E00004020004081F0804000004021F02040070
:1038F000EEDDCCBBAA000000620862086208A310DB
:10390000C310E418C310C310A310A310C310C31036
:10391000E418E418C310C310A310A310A310A3103D
:10392000A310C310C310C310E418E418E310C310AD
:10393000A31082088208820862088208820882082E
:103940008208A208A310C310A310A310A310A310F1
:10395000C310C310A3108208620882088208A2085C
:10396000A310A310C310C310C310C310A208820871
:103970008208A310A31082088208A208A310C31013
:10398000C310C310A310A310A310A310A310A3105F
:10399000A208A208A208A310820882088208A21026
:1039A000A210820882086208820882088208A21097
:1039B000A310A310A310A310A310A310A310A3106F
:1039C000A310A310A2088208820882088208620855
:1039D0004100410041006100620862086208610024
:1039E000410041006100620862086208620841000B
:1039F000410061008208A31082088208A310E41825
:103A00000419E418C310C310C310E418E41804190F
:103A10000419E310C310A310A310A310A208820876
:103A2000A310C310C310C310C310C310C310A3103E
:103A3000A310A310A310C310C310C310A310A20897
:103A400082088208820882088208A310A310C3108B
:103A5000C310C310A31082088208A310A310C310C0
:103A6000C310C310C310C310C310A310A310820847
:103A7000A310C310C310C310A310A310C310C3100E
:103A8000C310C310C310A310E310C310C310C3109E
:103A9000A31082088208620862086208620862084D
:103AA00062086208620882088208A210C310C3106C
:103AB000E318C310A310A210A208A208820882086B
:103AC0008208820862086208620882088208820806
:103AD0006208620862088208820882088208620816
:103AE00062088208A310C310A208A2088208620814
:103AF00061004100410021008208A310C310E418B6
:103B0000E418C310C310C310C310E418041925210E
:103B10000419E310C310A310C310C310C310C310C3
:103B2000C310E418E418E418C310C310A310A310C2
:103B3000A310C310C310E418E418E310A310820804
:103B400082088208820882088208A310C310C3106A
:103B5000C310C310C310A310A310C310C310C3100D
:103B6000C310E310E418E418E310E418E310C310E2
:103B7000C310E310E418E418C310C310C310E3101B
:103B8000E418E418E418E310E310C310C310C310E2
:103B9000A31082086208620862086208620862086C
:103BA000610841006208620862088208A310C3101D
:103BB000E318C310C310A310A310A310A310A310E5
:103BC000A20882088208820882088208A208A3103C
:103BD000A310A310A310A208A310C310C310C310F6
:103BE000C310C310C310C310C310C310C310C3103D
:103BF000C310A31082086208C310C310C310C310FF
:103C0000C310C310C310E310C310041925212521CC
:103C10000419E418C310C310C310C310C310E31079
:103C2000E41804190419041904190419E418E31018
:103C3000C310E310E4180419E418E310A310A31050
:103C4000A310A310A310A310E310E418E310C310F3
:103C5000A310C310C310E310E418E418E418E41828
:103C6000E4180419E418E418E418E418E418E3105C
:103C7000E418E418E418E418C310C310C310C31008
:103C8000E310E310C310C31082088208A208A20840
:103C9000A2088208820882086208620882088208F4
:103CA000820882088208820882088208A310A31072
:103CB000A310A310A310A310C310C310E418E310A3
:103CC000C310C310A310C310C310C310C310E3105C
:103CD000E310C310C310A310C310C310E310E41803
:103CE000E418E310C310C310C310C310A310C31013
:103CF000E41804190419E4180419E418C310C310D3
:103D0000E310E418E41804190419252125212521BC
:103D10000419E418E418E418E418E4180419041960
:103D200004192419041904194521252124190419F9
:103D3000E418E418E41804190419E418E310E31073
:103D4000E418E4180419041904190419E418C31038
:103D5000C310C310E418041904190419E418E41872
:103D600004190419E418E310C310C310C310C310DE
:103D7000C310E418C310A310A310A310A310A31022
:103D8000A31082088208620862086208820882081A
:103D90008208A208A310A310820882088208A20841
:103DA000A310A310A310A310E418E310C310C310B2
:103DB000A310820882088208A310C310E310E4183D
:103DC000E310C310E310E418E418E418E41804192D
:103DD0000419E418E418C310C310C310C310A310CF
:103DE000C310C310E41804190419E310C310C3105E
:103DF000E418041925212521E418E310C310C31089
:103E0000E418E310E310E310041904190419041969
:103E10000419041904190419E418041904190419DB
:103E20000419E418041904190419041904190419CB
:103E3000E418E418E418E418E418E418E418E418A2
:103E4000E418E418E418E418E418E418E418E3109B
:103E5000C310E310E418E418E418C310C310C3102F
:103E6000041904190419E418C310C310C310C310B3
:103E7000C310C310A3108208820882088208A20817
:103E8000A208A208A208A208A310A310C310C3107E
:103E9000C310C310C310C310C310C310A310A310CA
:103EA000A310C310C310C310041904190419E41893
:103EB000C310A310A310A208A310C310C310E310D3
:103EC000E310E310E418E4180419041904190419A0
:103ED0000419041904190419E418E418E418E4187E
:103EE000E418E4180419041925210419E418C3106E
:103EF000E418041925212521E418C310C310E31088
:103F0000E310E310E310E418041904190419241948
:103F10002521452145212521E310E310E418C31094
:103F2000A3108208A310C310E418E418041904199C
:103F3000041904190419E4180419041904190419BA
:103F4000E418E418E418E310E310E4180419E41882
:103F5000E418E418E418E418E310C310C310E310E5
:103F6000E4180419E418E418E418E418E418E41850
:103F7000E418E418C310A310A310A310C310C310B7
:103F8000C310E310E4180419E418E4180419041920
:103F900004190419E418E41804190419E418C310E6
:103FA000C310C310E310E418E418E418041904194A
:103FB000E418C310C310C310C310C310E418E418EE
:103FC000E418E418E418E41804190419041904198D
:103FD000E418E41804190419E418041925214521EA
:103FE000252124190419E418E310E310E310E31069
:103FF000E418E4180419041904190419041904191B
:10400000041904192419452125212521252145219B
:104010006629662945212521041904190419E41883
:10402000A3108208A310E3100419041925214521C7
:104030004521252124190419252125214521252142
:10404000252104190419041904192419241904191F
:104050000419241925212419252125212521241974
:104060000419E418E418E418E310E418E418E41858
:104070000419041924190419041904192419041918
:104080000419041904190419E41804190419041969
:104090000419E418E418C310E418041904190419E5
:1040A000E418E4180419041904190419041904196A
:1040B000E418C310C310C3100419E418E418E4187A
:1040C00004190419E418E41804190419041904194A
:1040D000E418C310E310E418E41804192419252186
:1040E0002521252104190419C310E41804192521D8
:1040F0002521241924192521252125214521252182
:1041000004192521652145210419E418E41824190E
:104110004521652166296629662986298629662919
:104120004521452165216629662966296629862952
:104130006629252124192521E418041904190419D4
:1041400004194521452145214521252145214521A8
:104150006521452145214521452125212419E418C2
:10416000C310C310E418E418E4182419041904193E
:104170002521452125214521452125210419041901
:1041800004190419041904190419252125212521CC
:10419000041904190419E418C310C310E310C31060
:1041A000E4180419041904190419E418E418E310B4
:1041B000E310E310E418041924190419041904196C
:1041C000241924190419E418E418E418E418E4186C
:1041D000E418E418E310C310E418041904190419CE
:1041E0000419041924190419241904192521452135
:1041F00045212521452166292519251945216521B6
:104200004521452145210419E310E41004194521F5
:1042100045214521652165218629A729C731A7297F
:1042200086298629A629A72966218629A629A729BC
:10423000862945210419E410C310E310E310E410AB
:10424000241965218629A62966214521452125199C
:104250002419041904190419E410E410E4100419D1
:1042600024194521452145216521662165214521E6
:10427000662166214521452165214521241904191E
:1042800004190419241924190419241925192419A5
:104290000419041904190419E310E310E310E418D5
:1042A0000419252145216521452125212521241990
:1042B00004190419041925212519041904190419CC
:1042C000041904190419E410E410E410E410E410D3
:1042D0000419041904190419E310E410E410041972
:1042E0000419041904190419041924192519251984
:1042F0002519452145214521662166218629A729C1
:10430000A629862965212519041925194521662123
:104310004521452145216521652186298629862952
:1043200065216621862986298629A629C731C731B4
:10433000A72945210419E310C310E4100419251915
:10434000452166218629862965212519E410C31097
:10435000A2088208A208A30825192519452166216B
:10436000A729C731A72986296621662166216621EA
:1043700086298629652165218629652145212419FB
:104380002419241924192419041924192419251964
:10439000241904192419452145212521041904193A
:1043A000252125214521652145214521252125213D
:1043B00025212521252145212519251924192419CF
:1043C0002519251924190419251904190419E410AB
:1043D0000419241925192519251925192419041931
:1043E00004190419E410E410041904192419041917
:1043F0000419452145212419652145216621862975
:10440000862966216621452165216521662166216F
:104410004521452166218629A629A62986296621C6
:10442000652165218629A629C731E731E731E731C2
:10443000A7298629452145210419251945216521EA
:104440006521452145214521452125190419E410FF
:10445000E310E41025196521C731C731C731C731D1
:10446000C731C731A729A629862986296621862929
:10447000A7298629652166216521452145214521F8
:104480004521452145214521452145216521862993
:10449000862966216621862966294521252125212F
:1044A00025210419041925210419041904192419B2
:1044B0002521252125214521241945216521652115
:1044C000652145214521452125190419E310E310F3
:1044D000E41004192419241925192519241925195A
:1044E000452145214521452145214521452145219C
:1044F00045216621652145214521452165218629E2
:10450000662165216621862966216521652166214E
:1045100086298629C731E831E831E731C731A72933
:1045200086298629A629A729083A083AE731C731FA
:10453000A62986298629662145214521452145212F
:104540004521452165216621A629862986296621DE
:1045500065216621A629C731C731E731C731A729AF
:10456000862966218629A629A729A7298629862999
:10457000A6298629452145216521652165216621D8
:1045800086298629A629A729662165216521652115
:1045900065216521652166214521452124192419BC
:1045A000241904192419241924190419241945213A
:1045B00045214521452145212419452165216521B4
:1045C00045214521662186296521452104190419C3
:1045D00025194521662186294521251925194521B9
:1045E00066216621662186298629452145214521A6
:1045F000652165216521662166216621A729C731CC
:10460000A6298629A729A72986298629A629C73167
:10461000E831E831083A083AE731C731C731C731E4
:10462000A629862986298629E831E731C7318629D6
:10463000862966216621652145214521452145219F
:104640004521652166218629C731A729A629A629E2
:104650008629662166216621A629C731C731A72987
:1046600086296621A729E831C731E831C731A72952
:10467000A729A729862986294521452125192419F5
:1046800025194521452165218629662145212519C0
:10469000452145216521452166218629662145213F
:1046A000251925192519251965214521452145215A
:1046B00065214521452145212519452145214521D2
:1046C000251945218629A629A72986298629662113
:1046D00086298629A729C7316621652145216521BB
:1046E00066216521452145214521241904192419F4
:1046F000251924192519452186298629C731C7314D
:10470000A729A729C731A729C731C731E831283AD6
:10471000293A083A083AE831E731E731E731E73139
:10472000C731A729A629A629C731C731A7298629B4
:104730008629862986298629862986298629A629E1
:10474000A629862986298629A629A629A729C73127
:10475000E731C731A62986298629A729C731C7315C
:10476000C731A729C731C731E731083A083AC731FD
:10477000E831083A083AE831C731C731A729862914
:104780008629A629A729C731C731C73186296521BE
:1047900066218629862945216521A629C731A629B2
:1047A00086296621662145218629662145214521E4
:1047B0004521452145216521652145214521452189
:1047C000452166218629A729A629A6298629862981
:1047D000662166218629862966216521652186292B
:1047E000A629862986298629662165214521452114
:1047F0004521251925192519A729C731E731C731C1
:10480000C731E831E831C731C731E731083A293AD1
:10481000293A083AE831E731083AE731E731E83137
:10482000E831E731E731E831E731E731C731C73106
:10483000C731E831083A083AE831C731A729C7310A
:10484000C731C731C731E831E831E831083A283A91
:10485000083AC73186296621A629A729C731E73139
:10486000C731A62966216521A629E831E731A629A5
:10487000A729E731E831E831E731E731E831E831BC
:10488000E831083A083A283A083AE831C731862927
:10489000662186294521C310E3104521C731C73160
:1048A000C731C731C7318629A6296621452145214F
:1048B000452145216521862986298629652166218C
:1048C0008629A729A729A62986298629A6298629EE
:1048D000862986298629A729C731A629A629A72995
:1048E000C731A62986298629862986298629452130
:1048F0002519251924190419E731A729A729E83111
:10490000293A493A0832C731A729C731293A293A01
:10491000E831E831083A083A49426A42283A083A06
:10492000293A083AE831C731E831083A083AE8311B
:10493000C731E731E831E831E831C731E731083ACA
:10494000083A49426A424942283A283A293A283ADA
:10495000083AC7318629C731C731C731C731A729BE
:104960008629A729C731C731E831C731A729A72927
:10497000E831283AE831A729A729E731083A283A47
:104980000832C731C731E831A729C729E731E831F3
:10499000E73186292519E410E4106621C731C731B3
:1049A000E831293A083AE831E731E731C731C73110
:1049B000C731C731A729A629C731E839C731A7317F
:1049C000E839083AC7318629A731862986298629F8
:1049D000A731A731A731A731A7316629A731083AF6
:1049E000C731A731A731862986292519C310C310DD
:1049F000041945216629A731A629C731083A293A61
:104A0000283A0832E831083AC731083A494249425F
:104A1000283A083A083A083A49426A42293A293A71
:104A200049424942293A083AE831083A083A083AEC
:104A3000E831083A083A293A283A293A494269427B
:104A400049426A426A42283A083A083A4942293AAF
:104A5000083A083AE831293A4942083AE731C73179
:104A6000E831083A293A293AC731C731C731E73125
:104A7000E831E831083A083A083A283A293A283A17
:104A8000C73186218629C729C731E731E831083A7D
:104A9000083A0832E831C731E831E831083A283AB3
:104AA000293A083A083A293A6942293A083AC73174
:104AB000C731C731C731C7318629C731E839083A0C
:104AC000083AC731C731E839E839083A083AE839CD
:104AD000A731662966216629A7298629E831294256
:104AE000E839A73166292521A3106208C3102521C2
:104AF0004521C731083AA731A629E731293A6A4248
:104B00006942493A293A293A8A4AAB4ACB52AB4AD6
:104B10008A4A4942293A494249426A4249424942FB
:104B20006A4249424942293A283A083AE831E8318A
:104B3000E831283A69428A4A8A4AAA4AAB4A6A4212
:104B4000293A49426942293A083A283A4942293AD7
:104B5000083A293A283A49426942293A083A083A31
:104B6000083AE731E831283AE831E831083A083ABA
:104B7000E831C731A729C7314942293A283A283AAA
:104B80000832E731E831083A283A083A0832E83181
:104B90000832083A293A293AE831083A283A083AD4
:104BA000083A293A69426A424942293A283A083A77
:104BB000083A083AE831E831A731C731083A4942A2
:104BC0004942083AC731083A083A083A2942294284
:104BD0002942083AE839C731E839C731A73186296F
:104BE0006629452125210419C3108208E41866218D
:104BF0006629C731083AC7314942494249424942C8
:104C000069426A428A4AAB4ACB52EB52AB4A8A4A61
:104C10008A4A6A4A49426A4AAB4AAB4A8A4AAB4A1A
:104C2000CB52CB52CB52CB524942283AE831E831F1
:104C3000083A293A69428A4A6A428A4A8A4A494271
:104C4000083A083A49424942494249428A4A6A4234
:104C500069428A4A494249424942293A083A083A4D
:104C6000283A083A283A293A283A283A293A494229
:104C700049424942283A083A293A69426A42494235
:104C8000283A083A293A6942293A293A293A4942BE
:104C90004942293AE831C7316621C731083A083A12
:104CA000E731083A49426A42293A494249426A424E
:104CB000694249424942494249424942083AE83137
:104CC000083A083A083A283AE831E831083A293AE5
:104CD0006A424942083AC731662145210419E41065
:104CE0002519452166218629E831E731A62986293B
:104CF00086294521251986298A42AA4ACB4AAB4AE8
:104D00008A4A8A4A8A4A8A4ACB52AB4A6A426A42E9
:104D10008A4AAB528A4AAB52CB52AB4AAA4ACB52CE
:104D2000EB52EC520C5B0C5B8A4A6A4249426A4283
:104D30006A426A4249424942293A69428A4A8A4A4F
:104D40006A42494249426A426A4249428A4A8A4A16
:104D50006A42AB4A8A4A69426A428A4AAA4A494234
:104D6000E831E831083A4942283A49424942494241
:104D70006A428A4A6A42293A6A42EC522D5BCB5215
:104D80004942293A49426A424942283AE831E831DF
:104D9000083A083AE831C731E731C731083A4942A1
:104DA000083AC731083A293A4942494269426942B8
:104DB0004942293A293A49426A428A4A8A4A6A4217
:104DC0004942293A293A6A426A428A4A6A42293A57
:104DD000E731A729A629A729C731C731E831283AE1
:104DE0006A428A4A6A4249426A428A4A4942083ABF
:104DF000283AC731662166218A4AAA4ACB52EC5228
:104E0000EC52CB526A42283ACB52AB52AB4AAB522D
:104E1000EC5AEC5AEC52CB520C5BEC5AEC5A0C5B51
:104E20000C5B0C5B4D632D5BEC5ACB52AB4AAB4A2F
:104E3000CB52EC52CB528A4A6A428A4AAB4ACB5294
:104E4000AB4A6A4249428A4A8A4A49426A426A42AB
:104E50006A42AB4AAB4A8A4A8A4ACB52EC52AA4AC5
:104E6000293A083A083A083A083A49426A42494215
:104E7000293A49426942293A6A42CB520C5BCB52E9
:104E80008A4A8A4A8A4A6A426942083AC731A72945
:104E9000C731083A283A293A6A4249426942694286
:104EA000494269428A4A6942293A49426A426A4207
:104EB0004942083A083A293AAB4A8A4A8A4AAB4AEE
:104EC000CB528A4A6A42AB4A0C5BEC528A4AE831BE
:104ED0008629A629083A6A424942494269428A4AD1
:104EE000AB4AAA4A8A4A6A426A426A426A426942AA
:104EF0006A428A4A293A6621EB52AB4A8A4A8A4A6E
:104F0000AB4AEB52CB528A4ACB52CB52EC5A0C5B97
:104F10000C5B0C5BEC5ACB52CB52CB52CB520C5BA2
:104F20000C5BEC5A0C5BCB52EC5ACB52AB52AA4AFC
:104F3000EC5A2D632D63EC5ACB52EC5ACB528A4A71
:104F40008A4A6A4A6A4A8A4A0C5BAB52CB52CB52B3
:104F5000AB52CB52EB52CB52AB52AB4A8A4AAB521A
:104F6000CB52CB528A4A2942294249426A4249429B
:104F700049428A4AAB52CB526942694269426A420B
:104F80008A4AAA4A8A4A6A42694269426A426A422B
:104F90008A4A6A424942293A8A4AAB4ACB526A4211
:104FA0004942EB522D5BCB526A428A4A8A4AAB4A4B
:104FB000AB4A6A426A426A42CB526A42083A083AAB
:104FC00069426A426A42AB4AAB4A8A4A283AE731A6
:104FD000E8314942CB52EC526942293A49426A428D
:104FE000494249428A4AAB4A8A4A6A426A426A420A
:104FF0004942283AA7292519AA4AAB4ACB52AB4ABB
:10500000AB4ACB52CB52CB52CB52EB524D636E6B71
:105010004D634D632D630C5B6A4A6A4AAB520C5B6D
:105020000C5B0C5B2D63EC5AAA4AAB528A4AAA4A23
:10503000EC5A4D630C5BAB524D636E6B2D63EC5AB7
:105040000C5B0C5BEC5A0C5B2C5BCB520C5B2C5B53
:10505000CB52EC5AEC5AEC5ACB52CB52CB52AB520D
:105060006A4A49426A4ACB52AB528A4A6A42494228
:1050700049426A4AAB4ACB52CB52CB52CB52CB526B
:105080008A4A6A426A4AAB52AB52AB52AB528A4A24
:105090008A4A8A4A8A4A8A4AEC52CB52EC5ACB5202
:1050A00049428A4AEC5AEC5ACB528A4A6A4A8A4A9C
:1050B0008A4A6A4A8A4AAB4A6A428A4A6942293A11
:1050C0004942494249424942293A49426A42AB4A25
:1050D000EB520C5BCB52AB4AAA4A8A4ACB520C5BCE
:1050E0008A4A49428A4ACB528A4ACB52AB4AEB524D
:1050F000EC52083A6621E831CB52EB52EC5ACB52D3
:10510000CB52EC5ACB52CB520C5BEC5A4D636E6BCC
:105110002C636E6BEC5A0C5B2D63EC5ACB520C5B20
:105120002D63EC5AEC5A4D632D634D632C63AB52E7
:105130000C5B6E6B0C5BEC5A4D636E6B6E6B4D6370
:105140002C5B2D636D638E6B6E6B6D63EC5ACB5273
:105150002D636E6BEC5A4D630C5B8E6B0C5B0C5BC2
:105160000C5BEC5ACB52EC5ACB52EC5A6A4AAB4A23
:10517000AB520C5B0C5BAB528A4ACB52EC5AAB4A3B
:105180008A4A8A4A6A4AAB528A4A6A4AAB52AB5244
:1051900049428A4AEC5A6A4AEC52AB52CB52EC5A18
:1051A000AB520C5BEC5A0C5B0C5BCB52AB52AB5270
:1051B0006A4A49426A42AB4ACB52AB4A6A42E83138
:1051C000C731083A49428A4A8A4ACB52CB520C5BD1
:1051D000EC52EC528A4A6A4249428A4A8A4A6A42F4
:1051E0008A4ACB520C5B4D636D63CB526A42494293
:1051F0004942A629A629083A0C5BAB52AB52EB52A6
:105200000C5B0C5B0C5B8E6B6E6B2D634D632C63C8
:105210000C5B6D6B6E6BCF732D638E6B8E6B2D6322
:10522000EC5AEC5A0C5B2D634D63CB52EC5A2C6359
:105230000C5B0C5B4D638E6B8E6B4D634D636E6BC5
:105240008E6B2C5B2D636E6BF07BCF734D630C5BB1
:105250006D63AF734D632D636E6B6E6B2C5BEB52A6
:10526000CB52EC5A2D63CB52AB520C5B0C5B0C5BFC
:10527000CB52CB522D636D63CB52AB528A4AAA4AB2
:10528000EB52CB52AA4ACB52AB520C5B0C5BEC5AA2
:105290002D630C5BEC5A4D63EC5AEC5A4D632D5B5D
:1052A000AB528A4AAB4AEC5A8A4A494249426A425C
:1052B0006A4A6A4A494229424942C731A729283ADB
:1052C0008A4ACB52CB520C5BCB52CB52CB52AB4A1D
:1052D000AB4AAB4A8A4A8A4A8A4ACB52CB528A4A5A
:1052E0008A4AAA4A6A4249424942E831A729A6297C
:1052F000E831083A49428A4A2D63EC5A2C5B8E6B9E
:10530000CF738E6B2D638E6B107C6E6B2D636E6B0B
:10531000CF738E6B6E6BAF73F07B107CCF738E6B25
:105320006D6B4D632C632C636D6B0C5B2C636D6B31
:105330000C5B0C5B8E6BAF738E6BAF73CF736E6B4E
:10534000AF738E6BAE736E6B4D636E6B4D630C5BA8
:10535000EB5A4D630C5B0C5B4D632D636D6B2D63E2
:105360000C5B2D638E6BAB52EC5A0C5B2D634D6363
:105370006E6B6D6B8E6B8E6B0C5B4D630C5BAB520F
:105380000C5B8E6B6D63EC5A0C5B2C5B6E6B6D6310
:105390004D632D630C5B8E6B0C5BCB52EC5A6A4AEF
:1053A0004942083A6A42AB4A293A29426A4A8A4A39
:1053B0002942083AE839A7318629A7296A42EC52DE
:1053C000EC52EC52EC520C5B0C5B0C5B2D5B0C5BFF
:1053D0002D5BEC520C5BEC528A4A4942293A494215
:1053E0006942293A283A494249426A42AA4AEB525A
:1053F000EC524D632C5BCB522D630C5B0C5B0C5B56
:105400004D634D632D636D6B8E6B6E6BAE73F07B76
:10541000107C2D634D63AF73CF73F07BF07BAF7364
:105420006E6B4D638E6B107CAF73F07BAE738E6BC7
:10543000AE734D638E6BCF73AE736E6BAE736E6B6C
:10544000CF734D638E6BCF736E6B8E6BCF738E6B22
:105450002D636E6B8E6B8E6B4D636E6BAF736E6B6D
:105460002D638E6BEF7B2D636D6B6D6B8E6B8E6B17
:10547000F07BCF73CF738E6B8E6B8E6B2C63EC5A7D
:10548000EC5A4D636E6B4D634D63CB522D636E6B67
:105490008E6BAF736E6B4D636E632D632D630C5B10
:1054A0002D632D630C5BCB522D63CB52EC520C5B06
:1054B0002D634D632D63CB52293AC731293A2942D6
:1054C000083A49426A4A6A4A6A4A6A4AAB52CB5225
:1054D000EC5AAB52AB4AAB52CB52CB52CB522D63B0
:1054E0004D630C5BCB520C5B8A4ACB52EC5A0C5B83
:1054F000CB522D5B0C5BCB528E6BAF73CF73AF7304
:10550000AF738E6B4D634D632D63AE73AF734D6B95
:105510008E738E6BCF7BF07B8E6BCF73AF734D63CF
:105520002C632D638E6B107C107C3184CF73EF7BEA
:10553000EF7B6E6BCF735184107CCF73AF736E6B48
:10554000F07B8E6BAF73107CEF7BAF73AF73CF7359
:105550006E6BCF73AF73AF738E6BAF738E6B2C6349
:10556000EB5A6E6BAF738E6B6D6BAF73F07B8E6BA4
:105570008E6B6D6B8E6B6E6B6D6B6E6BEC5ACB5274
:105580008A4ACB522D634D63AB520C5BAF738E6B6B
:105590004D630C5BEC5A4D63EC520C5BEC5AEC52D5
:1055A000EC522D632D630C5B6E630C5B0C5B6E6BBE
:1055B0008E6B8E6B4D630C5B294266298629C73141
:1055C000083A6A4ACB520C5B4D634D634D638E6B58
:1055D0006E6B6E6B6E638E6B4D638E6B6E6B4D631D
:1055E0008E6B8E6B4D63EC5A2D5B2D632D632D639B
:1055F000EC5A4D636E6B4D638E6B8E6BCF73CF73B6
:10560000CF73CF73AF73107C728C5184F07B8E7329
:10561000CF7B108431843184F07BCF7BAF73CF7329
:10562000AF736E6B4D6B8E6BF07BF07BF07BAF736B
:105630004D6B8E7331843184107CEF7B8E6B0C5BF1
:10564000AF73AE738E6B8E6BEF7BAF73AF73CF7335
:105650008E6BCF73AF73AF734D638E6B4D634D63C2
:105660004D63AF736E6B6E6B6E6B8E6BEF7BAE7359
:10567000AE73AE734D630C5B2C638E6B2D634D6309
:105680000C5B6E6B6E6B0C5B6E6B4D636D6B6E6B60
:105690002D634D634D63CB522D636E6BEC5ACB5231
:1056A000EC5A6E6BAF6B8E6BAF736E6B2D630C5BD6
:1056B000AB522942083A294209422942CB520D6392
:1056C0002D636E6B8E6BAF73AF73AF736E6BAF7317
:1056D0006E6B8E6B6E6B8E6BAF738E6B2D630C5B14
:1056E0004D638E6B6E6B0C5B8E6B6E6B4D636E6B76
:1056F0004E6B6E6B4D630C5BF07BF07B31845184A1
:105700003184AF736D6BAF73728CF07B107CF07B68
:105710008E736E6B6E6BCF7BF07BF07B1084728C24
:10572000518CAF73AF731084F07B108431848E730F
:105730006E6B3184728C107C3184CF736E6BAE7360
:10574000107CAF736E6BF07B8E6B8E6BCF73CF73F1
:105750008E6B8E6B2D630C5B2D634D63AF73F07B93
:10576000107C107C8E6B6E6BAF738E6BAF73CF73D0
:10577000F07B107C6E6B0C5BAE738E6B6E6B728C01
:105780003084CF73AF738E6BAF738E6B8E6BCF73B2
:105790006E6B8E6B107C8E6BAF73CF738E6BAF7333
:1057A000F073CF736E6B0C5BCB52AB526A4A6A429A
:1057B000AB52CB520C5B6E6B2D63AF73107CCF730F
:1057C000CF731184D07B6E6BAF738F738E6B8F73BF
:1057D0008E6B8E6B6E6B4E6B4D632D630C5B2D630E
:1057E0006E6B6E6B2D630C5B8F736E6B2D630C5B3E
:1057F0004D634D632D630D63107CF07BF07BEF7B7D
:10580000CF73CF73EF7B51843184CF7B3184728C23
:10581000107C1084AF73108431843184107C108428
:105820003184318410841084728C728C3184107CA9
:10583000928CF49C518C3184AF73F07BCF73CF7317
:10584000107CCF738E6BF07BF07BF07BF07BF07B7A
:10585000CF73CF73EC5A49426E6B2D63CF73CF7306
:10586000EF7BAF73AE73AE738E6B8E6B8E6B8E6B86
:105870002D634D630C5B4D63CF73F07BAF73728C04
:10588000107CF07BF07BCF738E6B107C8E6BAF73D4
:10589000107C8E6B8E6B8E6BAF73CF738E6B8E6B3B
:1058A000AF6BCB524942E8318A4A6E6BF07B107C79
:1058B000107CAF736E6BCF734D63AF73107C107C35
:1058C0003184728C3184F07B8F738E6B8E6B4E6B58
:1058D0008E6B8E6BAF738E6BAF73CF73AF734D6385
:1058E0004D636E6B6E6B4D63EC5A0C5B0C5B0C5B2B
:1058F000AF73CF73F07BF07B107C31843084EF7B0F
:105900005184107C3184B39431848E6B3184518402
:10591000EF7B5184728C728C928C5184728C3084A7
:10592000728CF49C928C5184B394F49CB394318423
:10593000728C107C928CB394CF7B107C92945184A7
:10594000518C3184F07B9294518C2D632D63AF7315
:10595000518CAF736E6B3184308430848E6BCF7317
:10596000EF73AE6B107CCF73CF736E6B8E6B4D632A
:105970004D638E6B6D636E6B6E6B4D6351845184A2
:10598000CF7BCF7BCF7B518CCF7B31841084318414
:105990003184CF739294D39C5084AE734D6B8A52F2
:1059A0000B5B0B5B6D6BCE735084CF73107C3084BC
:1059B00051840F7CCF7BCF7BCF7B518C728C518CF1
:1059C000318C31841184CF7B6E732D630C63AB5AA1
:1059D000CC5A4D6B2D63EC628E6B2C634D63CF7391
:1059E000CF73CF73EF7BF07BEF7BAE73F07BCF7326
:1059F0000C5B0C636D6B4D6B728C9294518CF07BD5
:105A00003184518C728C728C3184518C728C3184C3
:105A1000728CF49CB3949294728C518CCF7B518C89
:105A2000F49C728C518CD39CB394728CD39C728CEA
:105A3000928C9294B39431845184728CB394B394C5
:105A40003184F07B9294CF7BCF7B4D6B518C518C0A
:105A50009294F07B3184AF738E6B107CEF7BCF73AD
:105A60005184718CEF7B8E6BF07B8E6B8E6BAF7382
:105A7000107C107C107CCF734D6BCF7BAF73AF73FA
:105A8000CF7BCF7B728C4D6B6E6BCF73F07B1084B2
:105A90005184107CF07B2D63494ACB524D6BEC5AFC
:105AA0008E7310841184D07B8E73CF7BCF7B518C0F
:105AB00010846E6BEF7B31841084728C318CF07BA0
:105AC000AF73D07B518C518CF07BF07B8E73AF73B6
:105AD0006E733184AF7BCF7B308451845184107CD2
