:020000040800F2
:1000000000000120C5020008CB020008CF02000852
:1000100041030008450300088D03000800000000AC
:10002000000000000000000000000000D5030008F0
:10003000D903000800000000DD030008A113000838
:10004000F1030008F1030008F1030008F1030008C0
:10005000F1030008F1030008F1030008F1030008B0
:10006000F1030008F1030008F1030008F1030008A0
:10007000F1030008F1030008F1030008F103000890
:10008000F1030008F1030008F1030008000000007C
:10009000000000000000000000000000F103000864
:1000A000F1030008F1030008F1030008F103000860
:1000B000F1030008F1030008F1030008F103000850
:1000C000F1030008F1030008F1030008F103000840
:1000D000F1030008DD080008F9080008000000002E
:1000E000F1030008F1030008F1030008000000001C
:1000F000000000000000000000000000F103000804
:1001000000000000F1030008F1030008F1030008FB
:1001100000000000000000000000000000000000DF
:10012000F1030008F1030008F1030008F1030008DF
:10013000F1030008000000000000000000000000C3
:10014000000000000000000000000000F1030008B3
:10015000F1030008F1030008F10300081509000885
:10016000F1030008F1030008000000000000000097
:10017000000000000000000000000000000000007F
:1001800000000000F1030008000000000000000073
:10019000F103000800B583B000F0BAF9384B394AD2
:1001A0001360394A1360394900E02146384B9942BF
:1001B0000BD20A684B6801F10C0488689842F4D9A4
:1001C0001168196004330432F8E72E4B1A68314B7A
:1001D0009A4200D0FEE72C4B1A682F4B9A42F9D175
:1001E000274B2E4A13602E4A13602E4B05E0002049
:1001F000106004329342FAD80B462B4A934204D241
:10020000194651F8082B5B68F4E7244B1B6813B9B7
:10021000234B1B6803B1FEE701F01CFF694601A8F0
:1002200000F022F9214C224BE41AA4100025AC4224
:1002300014DC204C204BE41AA4100025AC4213DC43
:100240000099019802F0E0F905461C4C1C4BE41A99
:10025000A410002C0EDC284600F0E2F8144B53F8F2
:10026000253098470135E2E7134B53F8253098477E
:100270000135E3E7013C124B53F824309847E8E797
:10028000BABADECA00000020A0000020F403000873
:100290000C0400087856341232547698A4000020DA
:1002A000340200200C0400081C0400081C04000890
:1002B0001C0400081C0400081C0400081C0400089E
:1002C0001C04000808B5FFF765FF00BEFEE71EF03E
:1002D000040F0CBFEFF30880EFF309807146414A29
:1002E00010472DE9F04182B004468846124B5E6B00
:1002F0009F6B9D6A1B6B13F0020F03D00E4BDB6AE2
:10030000002B0CDB0D4800F0B7F8CDF800803B4621
:1003100032462946204600F007F900BEFEE74BF6BC
:10032000AB6100F07BF90028ECD0034B4FF00042AA
:10033000DA6202B0BDE8F08100ED00E0C4410008DF
:1003400000BEFEE71EF0040F0CBFEFF30880EFF3D2
:1003500009807146244A10472DE9F04182B00446D5
:100360008846084B5E6B9F6B9D6A074800F084F8D7
:10037000CDF800803B4632462946204600F0D4F8AE
:1003800000BEFEE700ED00E0D44100081EF0040FBF
:100390000CBFEFF30880EFF309807146134A104752
:1003A0002DE9F04182B004468846084B5E6B9F6B96
:1003B0009D6A074800F060F8CDF800803B46324661
:1003C0002946204600F0B0F800BEFEE700ED00E050
:1003D000E041000800BEFEE700BEFEE700BEFEE70B
:1003E00070470000E302000859030008A103000859
:0403F00000BEFEE766
:1003F400DCE5000800000020A4000020DCE5000883
:100404000000001000000010A400002038020020AA
:080414000000001000000010C0
:10042000FEE7000008B503460C4A12685AB10B4AB1
:100430001068033323F003030344094A934206D8A8
:10044000064A136008BD054A06491160EFE703F04C
:10045000B7F90C2303604FF0FF30F3E7A80000204A
:1004600000FC00203802002001230360014B0B60D8
:10047000704700BF040000200FB400B583B004AB88
:1004800053F8042B01938021064803F0CBF9002890
:1004900003DD0146034800F037F803B05DF804EBD4
:1004A00004B07047B00000202DE9F04385B0044649
:1004B0000F4643560BB10E461EE004252846214642
:1004C000ABBE0446384605B0BDE8F08314F9011B05
:1004D00004AA1A4402F8101C0133AB42F6D304AA52
:1004E0001344002203F8102C4FF00408E94640465C
:1004F0004946ABBE8046761B002EE3D03546102E13
:1005000028BF10250023E8E708B5FFF7CDFF08BD99
:1005100008B500F093F8024A024B9A6008BD00BF8C
:100520000000000800ED00E0F8B504460D4617464F
:100530001E462748FFF7A0FF21682648FFF79CFFCB
:1005400061682548FFF798FFA1682448FFF794FFEA
:10055000E1682348FFF790FF21692248FFF78CFFED
:1005600061692148FFF788FFA1692048FFF784FFF0
:10057000E1691F48FFF780FF1E48FFF77DFF29460E
:100580001D48FFF779FF1D4CE16A1D48FFF774FF16
:10059000216B1C48FFF770FFE16B1B48FFF76CFFF6
:1005A00015F0800F0AD115F4004F0CD11748FFF752
:1005B00063FF06991648FFF75FFFF8BD39461548F7
:1005C000FFF75AFFEFE731461348FFF755FFEDE716
:1005D000A8400008B8400008C8400008D8400008FB
:1005E000E8400008F84000080841000818410008E9
:1005F00028410008384100084441000800ED00E0AF
:10060000544100086441000874410008A4410008F6
:10061000AC410008844100089441000883691A88AD
:100620008A4201D0002070470268033A012A03D8A9
:100630000233836101207047002070470C4B1A6819
:1006400042F001021A60002199601A6822F0847257
:1006500022F480321A60074A5A601A6822F4802213
:100660001A60D960044B4FF000629A60704700BF77
:10067000003802401030002400ED00E000000000CF
:10068000F8B506460D46144600F0F0FF00210120A3
:1006900001F034F80121084601F030F8724B9C4219
:1006A00037D0724B9C4251D0714B9C426BD0B37A85
:1006B000002B00F08580012B00F09F80B27A737AC6
:1006C0005B0343EAC233327943EA0233B27943EA45
:1006D0008223F27943EA4223E360337A012B00F06C
:1006E000B180002B00F0A980022B00F0B08072795D
:1006F0002B78DB0243EA0233AA7843EA42236A7882
:1007000043EA8223EA7843EA022323610023236039
:10071000F8BD0421084600F0F1FF564F06220221E1
:10072000384601F019FA07220621022001F09EF94D
:1007300007220221384601F00FFA07221146022053
:1007400001F094F9252001F005F8B0E7112103200C
:1007500000F0D4FF474F02220121384601F0FCF996
:1007600007220221012001F081F9032201213846EC
:1007700001F0F2F907220321012001F077F9262088
:1007800000F0E8FF93E70521042000F0B7FF394FA0
:100790000C220121384601F0DFF908220C2101204A
:1007A00001F064F90B220121384601F0D5F9082245
:1007B0000B21012001F05AF9472000F0CBFF76E72A
:1007C00033689A009B0F26A1D1E9000102F078FE60
:1007D000294FA7FB00325109642202FB11021301C9
:1007E0003233A7FB03235B0903F0F00202EB011293
:1007F00003F00F031344A36060E7326800219218EE
:1008000041EB010316A1D1E9000102F059FE1A4F94
:10081000A7FB00325109642202FB1102D3003233DC
:10082000A7FB03235B095A0002F4F87202EB0112E2
:1008300003F007031344A36040E7E36843F00803B1
:10084000E36054E7E36843F00403E3604FE7E368E1
:1008500043F00803E360E36843F00403E36046E722
:1008600000C2EB0B000000000010014000440140FA
:1008700000140140200000201F85EB51C36843F4A1
:100880000053C3607047036813F0800FFBD04160D2
:10089000036813F0400FFBD0036823F040030360AC
:1008A000704731B1012908D1C36843F02003C36008
:1008B0007047C36823F02003C36070474068C0B22C
:1008C00070470000014B1860704700BF30020020E5
:1008D000014B1860704700BF2C02002008B5044B84
:1008E00000221A60034B1B6803B1984708BD00BF84
:1008F000001001403002002008B5044B00221A60AD
:10090000034B1B6803B1984708BD00BF004401407A
:100910002802002008B5044B00221A60034B1B6814
:1009200003B1984708BD00BF001401402C0200200D
:1009300010B5044600F09AFE0021012000F0DEFE12
:100940000121084600F0DAFE601E042855D8DFE8D1
:1009500010F005005500A900FC00570100210420FB
:1009600000F0CCFEA24C08220121204601F0F4F850
:1009700001220821104601F079F8092201212046C0
:1009800001F0EAF801220921104601F06FF80A226D
:100990000121204601F0E0F801220A21104601F071
:1009A00065F80B220121204601F0D6F801220B2127
:1009B000104601F05BF88F4B1A6822F010021A60A3
:1009C0001A6822F020021A601A6822F040021A60A7
:1009D0001A6822F480721A601A6822F400721A608F
:1009E00008229A621A6842F080021A600F22DA62C4
:1009F0001A635A6942F001025A6110BD00210320B6
:100A000000F07CFE7A4C05220121204601F0A4F87A
:100A100001220521104601F029F803220221204677
:100A200001F09AF801220321022001F01FF80A22A6
:100A30000221204601F090F801220A21022001F053
:100A400015F803220121204601F086F80122032136
:100A5000104601F00BF84FF080439A6842F0800294
:100A60009A601A6822F010021A601A6822F02002B6
:100A70001A601A6822F040021A601A6822F4807222
:100A80001A601A6822F400721A6008229A621A68C0
:100A900042F080021A600F22DA625A6942F00102C3
:100AA0005A61AAE70121032000F028FE504C0622DB
:100AB0000121204601F050F802220621012000F019
:100AC000D5FF07220121204601F046F80222072126
:100AD000012000F0CBFF00220221204601F03CF86B
:100AE00002220021104600F0C1FF0122022120460F
:100AF00001F032F802220121104600F0B7FF3E4B10
:100B00009A6842F080029A601A6822F010021A6015
:100B10001A6822F020021A601A6822F040021A6055
:100B20001A6822F480721A601A6822F400721A603D
:100B300008229A621A6842F080021A600F22DA6272
:100B40005A6942F001025A6157E70221032000F07E
:100B5000D5FD274C06220221204600F0FDFF02228F
:100B60000621104600F082FF07220221204600F0F5
:100B7000F3FF02220721104600F078FF082202212D
:100B8000204600F0E9FF02220821104600F06EFF27
:100B900009220221204600F0DFFF0222092110462F
:100BA00000F064FF154B9A6842F080029A601A6860
:100BB00022F010021A601A6822F020021A601A68E5
:100BC00022F040021A601A6822F480721A601A68D1
:100BD00022F400721A6008229A621A6842F08002B7
:100BE0001A600F22DA625A6942F001025A6104E780
:100BF00020000020000001400004004000080040E8
:100C00000321084600F07AFD274C002201212046EE
:100C100000F0A2FF02220021012000F027FF0122A4
:100C20001146204600F098FF02220121084600F0FC
:100C30001DFF02220121204600F08EFF02221146F4
:100C4000012000F013FF03220121204600F084FF61
:100C500002220321012000F009FF144B9A6842F0A0
:100C600080029A601A6822F010021A601A6822F054
:100C700020021A601A6822F040021A601A6822F4F0
:100C800080721A601A6822F400721A6008229A624E
:100C90001A6842F080021A600F22DA625A6942F042
:100CA00001025A61A9E600BF20000020000C0040AC
:100CB00010B401280DD0022800F0B680032800F0FF
:100CC0004D81042800F0DE81052800F06F8210BC01
:100CD000704701292ED0022954D003297BD0042942
:100CE000F5D19D4B196A21F480511962186A5C682C
:100CF000D96921F44C5141F4C04120F4005024F44E
:100D000080445C60D9611A641862DA6942F4006256
:100D1000DA61DA6942F48062DA611A6A42F4805276
:100D20001A625A6C42F400425A641A6842F0010294
:100D30001A60CCE7884B196A21F001011962196A1F
:100D40005868996921F0730141F0600120F4007046
:100D5000586099615A6300221A629A6942F0080247
:100D60009A619A6942F004029A611A6A42F0010299
:100D70001A625A6C42F400425A641A6842F0010244
:100D80001A60A4E7744B196A21F010011962186AFD
:100D90005C68996921F44C5141F4C04120F0E000B5
:100DA00024F440645C6099619A6318629A6942F421
:100DB00000629A619A6942F480629A611A6A42F00A
:100DC00010021A625A6C42F400425A641A6842F0E5
:100DD00001021A607BE7604B196A21F48071196285
:100DE000186A5C68D96921F0330141F0600120F490
:100DF000606024F440545C60D961DA631862DA6997
:100E000042F00802DA61DA6942F00402DA611A6A31
:100E100042F480721A625A6C42F400425A641A68B0
:100E200042F001021A6052E701292AD002294BD070
:100E300003296DD004297FF44AAF4FF08043196A2B
:100E400021F480511962186A5C68D96921F44C5107
:100E500041F4C04120F400505C60D9611A6418620A
:100E6000DA6942F40062DA61DA6942F48062DA61D6
:100E70001A6A42F480521A621A6842F001021A6039
:100E800025E74FF08043196A21F001011962196AC0
:100E90005868996921F0730141F0600158609961C7
:100EA0005A6300221A629A6942F008029A619A69AA
:100EB00042F004029A611A6A42F001021A621A6848
:100EC00042F001021A6002E74FF08043196A21F0F4
:100ED00010011962186A5C68996921F44C5141F457
:100EE000C04120F0A0005C6099619A6318629A6921
:100EF00042F400629A619A6942F480629A611A6AC5
:100F000042F010021A621A6842F001021A60DEE62C
:100F10004FF08043196A21F480711962186A5C6885
:100F2000D96921F0330141F0600120F420605C6058
:100F3000D961DA631862DA6942F00802DA61DA69C3
:100F400042F00402DA611A6A42F480721A621A6884
:100F500042F001021A60BAE600000140012929D0DE
:100F6000022949D003296AD004297FF4B0AEA54BE9
:100F7000196A21F480511962186A5C68D96921F4F0
:100F80004C5141F4C04120F400505C60D9611A64B6
:100F90001862DA6942F40062DA61DA6942F4806266
:100FA000DA611A6A42F480521A621A6842F0010247
:100FB0001A608CE6934B196A21F001011962196AD3
:100FC0005868996921F0730141F060015860996196
:100FD0005A6300221A629A6942F008029A619A6979
:100FE00042F004029A611A6A42F001021A621A6817
:100FF00042F001021A606AE6824B196A21F0100180
:101000001962186A5C68996921F44C5141F4C04135
:1010100020F0A0005C6099619A6318629A6942F4BA
:1010200000629A619A6942F480629A611A6A42F097
:1010300010021A621A6842F001021A6047E6714B08
:10104000196A21F480711962186A5C68D96921F003
:10105000330141F0600120F420605C60D961DA6303
:101060001862DA6942F00802DA61DA6942F00402D1
:10107000DA611A6A42F480721A621A6842F0010256
:101080001A6024E6012929D0022949D003296AD00F
:1010900004297FF41CAE5C4B196A21F4805119625B
:1010A000186A5C68D96921F44C5141F4C04120F4BC
:1010B00000505C60D9611A641862DA6942F4006217
:1010C000DA61DA6942F48062DA611A6A42F48052C3
:1010D0001A621A6842F001021A60F8E54A4B196A6E
:1010E00021F001011962196A5868996921F07301A8
:1010F00041F06001586099615A6300221A629A694E
:1011000042F008029A619A6942F004029A611A6AEE
:1011100042F001021A621A6842F001021A60D6E532
:10112000394B196A21F010011962186A5C689969D3
:1011300021F44C5141F4C04120F0A0005C60996161
:101140009A6318629A6942F400629A619A6942F459
:1011500080629A611A6A42F010021A621A6842F0BA
:1011600001021A60B3E5284B196A21F480711962F3
:10117000186A5C68D96921F0330141F0600120F4FC
:1011800020605C60D961DA631862DA6942F00802B3
:10119000DA61DA6942F00402DA611A6A42F48072B2
:1011A0001A621A6842F001021A6090E501292FD0F4
:1011B00002294FD0032970D004297FF488AD134B46
:1011C000196A21F480511962186A5C68D96921F49E
:1011D0004C5141F4C04120F400505C60D9611A6464
:1011E0001862DA6942F40062DA61DA6942F4806214
:1011F000DA611A6A42F480521A621A6842F00102F5
:101200001A6064E50004004000080040000C004043
:10121000334B196A21F001011962196A58689969FA
:1012200021F0730141F06001586099615A63002216
:101230001A629A6942F008029A619A6942F00402BD
:101240009A611A6A42F001021A621A6842F00102B7
:101250001A603CE5224B196A21F010011962186AE4
:101260005C68996921F44C5141F4C04120F0A00020
:101270005C6099619A6318629A6942F400629A61AB
:101280009A6942F480629A611A6A42F010021A6204
:101290001A6842F001021A6019E5114B196A21F42B
:1012A00080711962186A5C68D96921F0330141F0D4
:1012B000600120F420605C60D961DA631862DA6949
:1012C00042F00802DA61DA6942F00402DA611A6A6D
:1012D00042F480721A621A6842F001021A60F6E45F
:1012E000000C0040044B1A6842F004021A601A68AD
:1012F00042F002021A60704710E000E008B501F009
:1013000017FF4FF0834101F06BFF02F0B9F8B0F125
:10131000807F26D2214B00229A6058601A6842F0E2
:1013200001021A601D4B1B6813F4803FFAD01B4A60
:10133000136823F00103136008BD184B00229A6064
:101340006FF07F425A601A6842F001021A60134B34
:101350001B6813F4803FFAD0104A136823F001038E
:1013600013600028E8D0B0F1807FE6D300F17F4021
:1013700001300A4B00229A606FF07F425A601A686F
:1013800042F001021A60054B1B6813F4803FFAD04B
:10139000024A136823F001031360E2E710E000E063
:1013A00008B5164B1B68012B03D9013B134A136088
:1013B00008BDA3B9124B1B6823B1124A11680F4A2A
:1013C00011609847104B1B78002BF1D00E4B002278
:1013D0001A700E4A136823F001031360E8E7013B1B
:1013E000064A1360094B00229A60094A12685A6043
:1013F0001A6842F001021A60DAE700BF34010020E7
:10140000440100203C0100204001002010E000E0E9
:101410003801002010B5044600F028F90021012011
:1014200000F06CF90121084600F068F9022C52D056
:10143000032C00F09B80012C00D010BD0C21042057
:1014400000F05CF96F4C07220121204600F084FB7C
:1014500005220721012000F009FB06220121204678
:1014600000F07AFB05220621012000F0FFFA052298
:101470000121204600F070FB05221146012000F0FA
:10148000F5FA614B1A6842F001021A601A6842F0DC
:1014900002021A601A6842F004021A601A6842F4E2
:1014A00000721A601A6822F0380242F028021A60AC
:1014B0001A6822F080021A601A6842F480721A6078
:1014C0001A6822F400621A6000225A601A6842F018
:1014D00040021A60B1E70E21032000F00FF9494CD9
:1014E0000F220221204600F037FB05220F210220A7
:1014F00000F0BCFA0E220221204600F02DFB05224E
:101500000E21022000F0B2FA0D220221204600F046
:1015100023FB05220D21022000F0A8FA3B4B1A689C
:1015200042F001021A601A6842F002021A601A6858
:1015300042F004021A601A6842F400721A601A68D3
:1015400022F0380242F028021A601A6822F0800263
:101550001A601A6842F480721A601A6822F40062F3
:101560001A601A6842F040021A6066E70F210320F1
:1015700000F0C4F8234C05220221204600F0ECFACA
:1015800006220521022000F071FA042202212046E1
:1015900000F0E2FA06220421022000F067FA03229A
:1015A0000221204600F0D8FA06220321022000F092
:1015B0005DFA174B1A6842F001021A601A6842F08D
:1015C00002021A601A6842F004021A601A6842F4B1
:1015D00000721A601A6822F0380242F028021A607B
:1015E0001A6822F080021A601A6842F480721A6047
:1015F0001A6822F400621A601A6842F040021A6007
:101600001BE700BF200000200030014000380040F0
:10161000003C004002280ED0032816D0012800D03C
:1016200070470F4B197300E000BF0D4B9B6813F020
:10163000800FF9D170470B4B197300E000BF094BC5
:101640009B6813F0800FF9D17047074B197300E0C6
:1016500000BF054B9B6813F0800FF9D1E0E700BF96
:101660000030014000380040003C0040214B1A6827
:1016700022F400221A601A6822F480221A609A6802
:1016800022F001029A609A6822F002029A609A6837
:1016900022F010029A609A6822F020029A609A68FA
:1016A00022F040029A609A6842F080029A609A683A
:1016B00022F480629A609A6822F400629A609A68C2
:1016C00022F480529A609A6822F400529A609A68D2
:1016D00022F480429A609A6822F400429A60064A94
:1016E0005A605A6842F480025A601A6842F48032A2
:1016F0001A60704700380240204E04001F2925D888
:101700000138032822D8DFE800F0020A121A104834
:10171000036B012202FA01F11943016370470C487F
:10172000436B012202FA01F11943416370470848F3
:10173000036C012202FA01F1194301647047044865
:10174000436C012202FA01F119434164704700BF62
:101750000038024000F01F02400901239340024A72
:1017600042F82030704700BF00E100E00F293AD86E
:1017700010B4022815D0032825D0012801D010BCB0
:1017800070470C29FBD8184B1868490003248C407B
:1017900020EA04001860186802FA01F10143196098
:1017A000EDE78B1EDBB2022BE9D9104B186849001C
:1017B00003248C4020EA04001860186802FA01F142
:1017C00001431960DBE70C29D9D9094B1868490096
:1017D00003248C4020EA04001860186802FA01F122
:1017E00001431960CBE7704700000240000402404B
:1017F000000802400F292BD842BB02280ED0032834
:1018000019D0012824D10C2922D824484368012268
:1018100002FA01F123EA0101416070478B1EDBB23D
:10182000022B15D91E484368012202FA01F123EA6E
:101830000101416070470C290AD91A484368012206
:1018400002FA01F123EA010141607047012A00D048
:10185000704702280CD0032816D00128F8D10C2993
:10186000F6D80E48436802FA01F10B434360704713
:101870008B1EDBB2022BEBD909484368012202FA26
:1018800001F10B43436070470C29E1D905484368D7
:10189000012202FA01F10B434360D9E70000024044
:1018A00000040240000802400F293AD810B4022870
:1018B00015D0032825D0012801D010BC70470C2971
:1018C000FBD8184B9868490003248C4020EA040098
:1018D0009860986802FA01F101439960EDE78B1E68
:1018E000DBB2022BE9D9104B9868490003248C40E5
:1018F00020EA04009860986802FA01F101439960B7
:10190000DBE70C29D9D9094B9868490003248C409E
:1019100020EA04009860986802FA01F10143996096
:10192000CBE770470000024000040240000802407C
:101930000F293AD810B4022815D0032825D0012841
:1019400001D010BC70470C29FBD8184BD86849004F
:1019500003248C4020EA0400D860D86802FA01F120
:101960000143D960EDE78B1EDBB2022BE9D9104BA6
:10197000D868490003248C4020EA0400D860D86865
:1019800002FA01F10143D960DBE70C29D9D9094BEF
:10199000D868490003248C4020EA0400D860D86845
:1019A00002FA01F10143D960CBE770470000024021
:1019B00000040240000802400F292BD842BB022835
:1019C0000ED0032819D0012824D10C2922D824486C
:1019D0004369012202FA01F123EA010141617047E2
:1019E0008B1EDBB2022B15D91E484369012202FA75
:1019F00001F123EA0101416170470C290AD91A4813
:101A00004369012202FA01F123EA010141617047B1
:101A1000012A00D0704702280CD0032816D00128D4
:101A2000F8D10C29F6D80E48436902FA01F10B43AC
:101A3000436170478B1EDBB2022BEBD90948436927
:101A4000012202FA01F10B43436170470C29E1D9ED
:101A500005484369012202FA01F10B434361D9E7CA
:101A60000000024000040240000802400F296CD828
:101A700010B4072931D8022813D003281FD0012819
:101A800001D010BC7047314B186A8C000F21A14067
:101A900020EA01011962186A02FA04F1014319628D
:101AA000EFE72B4B1C6A88000F21814024EA0101DB
:101AB00019621C6A02FA00F121431962E1E7254B21
:101AC000186A89000F248C4020EA04001862186A02
:101AD00002FA01F101431962D3E7A1F10803DBB275
:101AE000072BCED8022812D003281FD00128C8D136
:101AF000164B586A083989000F248C4020EA0400EC
:101B00005862586A02FA01F101435962B9E7104B71
:101B1000586A083989000F248C4020EA0400586272
:101B2000586A02FA01F101435962AAE7094B586A5F
:101B3000083989000F248C4020EA04005862586A52
:101B400002FA01F1014359629BE77047000002402D
:101B5000000402400008024070B506460C461546D7
:101B6000FFF784FD012C18D0022C1BD0032C1ED0B3
:101B7000327829462046FFF7F9FD7278294620463B
:101B8000FFF738FEB27829462046FFF78DFEF2783F
:101B900029462046FFF7CCFE70BD00210120FFF74B
:101BA000ADFDE5E701210846FFF7A8FDE0E70221CA
:101BB0000120FFF7A3FDDBE710B5164C0122617889
:101BC0002078FFF7F9FE41F69C00FFF797FB002213
:101BD00061782078FFF7F0FE4120FFF78FFB0122AC
:101BE00061782078FFF7E8FE41F69C00FFF786FB5E
:101BF000002261782078FFF7DFFE41F69C00FFF7B6
:101C00007DFB012261782078FFF7D6FE0248FFF7BE
:101C100075FB10BD280000200071020038B5044695
:101C20000D46054B0122D9789878FFF7C5FEE9B239
:101C30002046FFF7EFFC38BD2800002038B50446E9
:101C40000D46054B0022D9789878FFF7B5FEE9B22A
:101C50002046FFF7DFFC38BD2800002070B50446A1
:101C6000134D144E6A7829783046FFF775FFEA78ED
:101C7000A9783046FFF770FFFFF734FB2046FFF7E7
:101C8000C9FBFFF799FF11212046FFF7D7FF0A484C
:101C9000FFF734FB3A212046FFF7D0FF052120460D
:101CA000FFF7BCFF29212046FFF7C8FF70BD00BF2A
:101CB0002800002018000020840D0F002DE9F041BD
:101CC0000546884617462A21FFF7B8FF0021284617
:101CD000FFF7A4FF00212846FFF7A0FF00212846B8
:101CE000FFF79CFF7F212846FFF798FF2B2128460E
:101CF000FFF7A4FF00212846FFF790FF00212846A8
:101D0000FFF78CFF00212846FFF788FF9F21284618
:101D1000FFF784FF2C212846FFF790FF00240AE0FC
:101D200038F81460310A2846FFF778FFF1B22846E8
:101D3000FFF774FF01347B1EA342F1D8BDE8F081A8
:101D40002DE9F041BDF81880142901DC132A01DDCA
:101D5000BDE8F0811F460546C1F11403DBB2C2F1B4
:101D60001304E4B203EB43035A0056B2E40064B236
:101D70002A21FFF763FF00212846FFF74FFFB6B285
:101D800031462846FFF74AFF00212846FFF746FF65
:101D9000F11D89B22846FFF741FF2B212846FFF7A6
:101DA0004DFF00212846FFF739FFA4B221462846FF
:101DB000FFF734FF00212846FFF730FF04F1080148
:101DC00089B22846FFF72AFF2C212846FFF736FF65
:101DD000062625E04FEA18212846FFF71FFF5FFA85
:101DE00088F12846FFF71AFF013C64B2002C15DB8E
:101DF000A7F12003C3EBC3030B4A13449A5D0123ED
:101E0000A3401A402241012AE4D000212846FFF7CE
:101E100005FF00212846FFF701FFE5E7013E76B206
:101E2000002E95DB0724E1E7F04100082DE9F0439F
:101E300083B081460D4690461E46BDF828700024AA
:101E40000AE000975BB2424629464846FFF778FF12
:101E500001356DB2013464B2335D002BF1D103B0B2
:101E6000BDE8F08310B582B00190C4B22046FEF701
:101E70005FFD9DF80600844201D0FEF759FD02B0D7
:101E800010BD00B583B001900A46C0F30721C0B26F
:101E9000FEF70EFF00229DF807109DF80600FEF7E2
:101EA00007FF03B05DF804FB10B582B001900C464B
:101EB0000022C0F30721C0B2FEF7FAFE22469DF8C9
:101EC00007109DF80600FEF7F3FE02B010BD00B546
:101ED00083B001900022C0F30721C0B2FEF7E8FEF4
:101EE00000229DF807109DF80600FEF7E1FE03B002
:101EF0005DF804FB08B5013807280AD8DFE800F0D0
:101F0000040A10161C22282E0D2203211648FFF762
:101F100023FE08BD0E2203211348FFF71DFEF8E73C
:101F20000F2203211048FFF717FEF2E705220221D6
:101F30000D48FFF711FEECE7042201210A48FFF7E4
:101F40000BFEE6E7052201210748FFF705FEE0E763
:101F5000062201210448FFF7FFFDDAE707220121ED
:101F60000148FFF7F9FDD4E71800002008B5013853
:101F700007280AD8DFE800F0040A10161C22282ED1
:101F800001220D210320FFF717FD08BD01220E21BC
:101F90000320FFF711FDF8E701220F210320FFF7CF
:101FA0000BFDF2E7012205210220FFF705FDECE71A
:101FB000012204211046FFF7FFFCE6E7012205217C
:101FC0001046FFF7F9FCE0E7012206211046FFF773
:101FD000F3FCDAE7012207211046FFF7EDFCD4E716
:101FE00008B5013807280AD8DFE800F0040A1016FF
:101FF0001C22282E00220D210320FFF7DDFC08BD46
:1020000000220E210320FFF7D7FCF8E700220F2162
:102010000320FFF7D1FCF2E7002205210220FFF7A1
:10202000CBFCECE7002204210120FFF7C5FCE6E72A
:10203000002205210120FFF7BFFCE0E70022062176
:102040000120FFF7B9FCDAE7002207210120FFF7A2
:10205000B3FCD4E77047000008B50348FEF72EFC38
:10206000024B187008BD00BF001401404A01002057
:1020700008B50348FEF722FC024B187008BD00BFEC
:10208000001001404901002038B52E4B187800F0AF
:10209000A7FE04460D4600222B4B00F075FFC8B981
:1020A00000222A4B2046294600F06EFF00283FD030
:1020B000274B1A7852B3274B1B78C3F3C2039342C2
:1020C00010DC244A127802F0070242EAC303224AD3
:1020D000137006E0204A137843F0C00303F0C703EF
:1020E000137038BD1C48037803F0BF0343F080032E
:1020F00023F007035BB21749097801F007010B438E
:1021000023F0780343EAC2030370EAE712490B782D
:1021100043F0400303F078030E4A127802F0070000
:10212000034303F0470302F0380213430B70D8E770
:10213000084B1B7803F0070203F038031343064AE9
:102140001370CEE75001002000002440000034400E
:102150004A0100204C0100204801002038B51A4BEC
:10216000587800F03DFE04460D460022174B00F063
:102170000BFF78B90022164B2046294600F004FFD9
:1021800080B9144B1B7803F0380343F00103124A63
:10219000137006E0104A137843F0C00303F0C7033E
:1021A000137038BD0C490B7843F0400303F07803FB
:1021B00043F0010303F04103064A127802F03802AB
:1021C00013430B70EDE700BF5001002000002440D6
:1021D000000034404C0100204801002038B51A4B63
:1021E000987800F0FDFD04460D460022174B00F0E4
:1021F000CBFE78B90022164B2046294600F0C4FEDB
:1022000080B9144B1B7803F0380343F00603124ADD
:10221000137006E0104A137843F0C00303F0C703BD
:10222000137038BD0C490B7843F0400303F078037A
:1022300043F0060303F04603064A127802F0380220
:1022400013430B70EDE700BF500100200000244055
:10225000000034404C0100204801002038B51A4BE2
:10226000D87800F0BDFD04460D460022174B00F063
:102270008BFE78B90022164B2046294600F084FEDA
:1022800080B9144B1B7803F0380343F00703124A5C
:10229000137006E0104A137843F0C00303F0C7033D
:1022A000137038BD0C490B7843F0400303F07F03F3
:1022B00043F0070303F04703064A127802F038029E
:1022C00013430B70EDE700BF5001002000002440D5
:1022D000000034404C01002048010020044B1B78D2
:1022E00003F0070203F038031343024A13707047E8
:1022F0004C0100204801002038B51B4BD87800F075
:102300006FFD04460D460022184B00F03DFE80B9DB
:102310000022174B2046294600F036FE88B9154B9F
:102320001B7803F0070203F038031343124A1370BB
:1023300006E0114A137843F0C00303F0C70313709B
:1023400038BD0D490B7843F0400303F07803094A88
:10235000127802F00700034303F0470302F038024B
:1023600013430B70ECE700BF500100200000244035
:10237000000034404C0100204801002038B51B4BC0
:10238000987800F02DFD04460D460022184B00F011
:10239000FBFD80B90022174B2046294600F0F4FDD2
:1023A00088B9154B1B7803F0070203F03803134379
:1023B000124A137006E0114A137843F0C00303F089
:1023C000C703137038BD0D490B7843F0400303F089
:1023D0007803094A127802F00700034303F0470329
:1023E00002F0380213430B70ECE700BF50010020ED
:1023F00000002440000034404C010020480100202F
:1024000038B57B4B1A78A2F13103442B29D8DFE889
:1024100003F09494949B9B9BA2A2A228282828288E
:1024200028282828282828238D28647228862828E8
:102430002828286B28288028282828282828282881
:1024400028282879282828282828282828282828BB
:102450002828A22828288000664B19786FF30201EB
:102460001970654B0F211970D97099705970634DAF
:102470002B7823F007035BB25E490878C0F30204AF
:10248000E1B2234323F0380300F0380003432B70FC
:10249000462A67D0622A72D04A2A7DD0552A00F097
:1024A00088804C2A00F09280522A00F08F80514B95
:1024B0001B7803F00703042B00F08D80052B40F000
:1024C00087804F4B1C704F48FEF7DDF94FF47A7050
:1024D000FEF714FFFFF752FF7AE0464B197804200D
:1024E00060F302011970BCE7424B1978022060F3D7
:1024F00002011970B5E73F4B1978062060F302011D
:102500001970AEE73B4B1978012060F30201197096
:10251000A7E738490B7843F007030B70A1E7354B69
:102520001978032060F3020119709AE7314B19788A
:10253000052060F30201197093E72E4B19780120F2
:1025400060F3C50119708CE72A4B1978022060F3FB
:10255000C501197085E7274B1978032060F3C50181
:1025600019707EE70021264B19702648FEF78BF97B
:102570004FF47A70FEF7C2FEFFF786FD28E00121D6
:102580001F4B19701F48FEF77EF94FF47A70FEF763
:10259000B5FEFFF7E3FD1BE00621194B1970194842
:1025A000FEF771F94FF47A70FEF7A8FEFFF716FEFA
:1025B0000EE00721124B19701248FEF764F94FF430
:1025C0007A70FEF79BFEFFF749FE01E0FFF786FEFB
:1025D0000A4B187838BD0A4B1C700A48FEF753F9AD
:1025E0004FF47A70FEF78AFEFFF786FEF0E700BF31
:1025F000490100204C01002050010020480100202A
:102600004B01002000140140F0B583B0FEF76AFED4
:10261000C14CC24EC24D224631462846FEF730F824
:10262000C048FEF755F901212046FEF73AF9204649
:10263000FEF724F9A4F58064224631462846FEF7C9
:102640001FF8B948FEF73EF901212046FEF729F9A7
:102650002046FEF713F9B54B1868FFF703FCB44B9F
:102660001868FFF7FFFBB34B1868FFF7FBFBB24B93
:102670001868FFF7F7FB0120FFF73CFC0220FFF78B
:1026800039FC0320FFF736FC0220FFF7E7FA4FF48E
:10269000A042AA490220FFF711FB4FF6E074009414
:1026A000A74B032201210220FFF7C0FB0094A54B9A
:1026B000042201210220FFF7B9FB21E09B4B18689F
:1026C000FFF705FC9A4B1868FFF701FC994B186857
:1026D000FFF7FDFB984B1868FFF7F9FB0220FFF7A7
:1026E00045FC0120FFF77CFC0320FFF779FC4FF647
:1026F000E0730093944B04220C210220FFF796FB19
:10270000FFF77EFE914B1B7803F007069D09904B67
:102710001B78532BD2D0572BD0D0772BCED08D4ACD
:102720001478C4F3C2040934462B30D0622B7BD01A
:10273000522B00F098804C2B00F0B280492B00F017
:10274000CC80472B00F016814A2B00F03181552BAD
:102750003BD10A21754B1868FFF793FB0A21754B93
:102760001868FFF78EFB0C21714B1868FFF789FB87
:102770000C21714B1868FFF784FB4FF6E073009350
:10278000754B03220C210220FFF750FB1DE0A7B27E
:102790003946664B1868FFF787FB3946644B186863
:1027A000FFF782FB3946634B1868FFF77DFB39461C
:1027B000614B1868FFF778FB4FF6E0730093674BA7
:1027C00003220C210220FFF731FB0A2C00F00E81BE
:1027D0000B2C00F01E810C2C00F02E81002D00F03F
:1027E0003E81012D00F06A81022D00F07181032DE0
:1027F00040F03E814D4B1868FFF769FB4C4B186861
:10280000FFF765FB4B4B1868FFF761FB4A4B1868F5
:10281000FFF75DFB4FF478430093514B05220121F4
:102820000220FFF703FB26E1A7B239463F4B1868A9
:10283000FFF727FB39463E4B1868FFF722FB394666
:102840003C4B1868FFF71DFB39463B4B1868FFF7F8
:1028500018FB4FF6E0730093424B03220C21022039
:10286000FFF7E4FAB1E7314B1868FFF730FB314B63
:102870001868FFF72CFBA7B239462D4B1868FFF7F5
:1028800013FB39462C4B1868FFF70EFB4FF6E0732D
:102890000093354B03220C210220FFF7C7FA94E77F
:1028A000A7B23946214B1868FFF7FEFA3946214B8B
:1028B0001868FFF7F9FA1E4B1868FFF708FB1E4B64
:1028C0001868FFF704FB4FF6E0730093274B0322D1
:1028D0000C210220FFF7AAFA77E70A21134B1868A8
:1028E000FFF7E2FA0A21134B1868FFF7DDFA0C2113
:1028F0000F4B1868FFF7D8FA0C210F4B1868FFF739
:10290000D3FA4FF6E0730093194B03220C210220F7
:10291000FFF78CFA59E700BF001401403001002096
:102920000C00002059200008712000082C00002015
:1029300030000020340000203800002090440008BF
:1029400090E40008A4E40008B8E40008480100206E
:10295000490100204C01002014E50008C0E40008F3
:1029600088E50008CCE40008D8E40008E4E40008A6
:10297000F0E400080A21634B1868FFF795FA0A2172
:10298000614B1868FFF790FA0C21604B1868FFF74D
:102990008BFA0C215E4B1868FFF786FA4FF6E0734E
:1029A00000935C4B03220C210220FFF73FFA0CE757
:1029B0000A21544B1868FFF764FA0A21524B186831
:1029C000FFF75FFA0C21514B1868FFF75AFA0C21F8
:1029D0004F4B1868FFF755FA4FF6E07300934E4BD4
:1029E00003220C210220FFF721FAEEE60320FFF775
:1029F000BDFA0220FFF7F4FA0120FFF7F1FA4FF6D3
:102A0000E0730093454B04220C210220FFF70EFADD
:102A1000E4E60320FFF7AAFA0220FFF7E1FA01201B
:102A2000FFF7DEFA4FF6E07300933D4B04220C21D2
:102A30000220FFF7FBF9D1E60120FFF797FA022009
:102A4000FFF7CEFA0320FFF7CBFA4FF6E0730093BF
:102A5000344B04220C210220FFF7E8F9BEE64FF4C4
:102A600080630093304B052201210220FFF7DEF93D
:102A7000002C7FF445AE234B1868FFF728FA234B50
:102A80001868FFF724FA204B1868FFF720FA204B4C
:102A90001868FFF71CFA0220FFF768FA0120FFF719
:102AA0009FFA0320FFF79CFA4FF6E07300931F4B49
:102AB00004220C210220FFF7B9F921E64FF47843F4
:102AC00000931B4B052201210220FFF7AFF9CFE74E
:102AD000331FDBB2012B0BD9002EC9D14FF4784341
:102AE0000093144B052201210220FFF79FF9BFE755
:102AF0004FF478430093104B052201210220FFF789
:102B000095F9B5E72C0000203400002030000020AB
:102B100038000020FCE4000808E5000820E5000873
:102B200028E5000830E5000838E50008B8E40008AA
:102B30004CE5000874E5000860E5000881F00041FC
:102B400002E000BF83F0004330B54FEA41044FEA92
:102B5000430594EA050F08BF90EA020F1FBF54EA2D
:102B6000000C55EA020C7FEA645C7FEA655C00F0C9
:102B7000E2804FEA5454D4EB5555B8BF6D420CDD9A
:102B80002C4480EA020281EA030382EA000083EA1D
:102B9000010180EA020281EA0303362D88BF30BDBD
:102BA00011F0004F4FEA01314FF4801C4CEA113113
:102BB00002D0404261EB410113F0004F4FEA033372
:102BC0004CEA133302D0524263EB430394EA050FFD
:102BD00000F0A780A4F10104D5F1200E0DDB02FA6C
:102BE0000EFC22FA05F2801841F1000103FA0EF200
:102BF000801843FA05F359410EE0A5F120050EF1C6
:102C0000200E012A03FA0EFC28BF4CF0020C43FAF6
:102C100005F3C01851EBE37101F0004507D54FF003
:102C2000000EDCF1000C7EEB00006EEB0101B1F553
:102C3000801F1BD3B1F5001F0CD349085FEA300099
:102C40004FEA3C0C04F101044FEA445212F5800FA4
:102C500080F09A80BCF1004F08BF5FEA500C50F141
:102C6000000041EB045141EA050130BD5FEA4C0C24
:102C7000404141EB010111F4801FA4F10104E9D1AD
:102C800091F0000F04BF01460020B1FA81F308BFA4
:102C90002033A3F10B03B3F120020CDA0C3208DD70
:102CA00002F1140CC2F10C0201FA0CF021FA02F14B
:102CB0000CE002F11402D8BFC2F1200C01FA02F1BB
:102CC00020FA0CFCDCBF41EA0C019040E41AA2BFE0
:102CD00001EB0451294330BD6FEA04041F3C1CDAA8
:102CE0000C340EDC04F11404C4F1200220FA04F0C8
:102CF00001FA02F340EA030021FA04F345EA030172
:102D000030BDC4F10C04C4F1200220FA02F001FA33
:102D100004F340EA0300294630BD21FA04F02946B5
:102D200030BD94F0000F83F4801306BF81F480114E
:102D30000134013D4EE77FEA645C18BF7FEA655CC1
:102D400029D094EA050F08BF90EA020F05D054EA93
:102D5000000C04BF1946104630BD91EA030F1EBF98
:102D60000021002030BD5FEA545C05D1400049419C
:102D700028BF41F0004130BD14F580043CBF01F58F
:102D8000801130BD01F0004545F0FE4141F4700175
:102D90004FF0000030BD7FEA645C1ABF1946104650
:102DA0007FEA655C1CBF0B46024650EA013406BF51
:102DB00052EA033591EA030F41F4002130BD00BF10
:102DC00090F0000F04BF0021704730B54FF48064CD
:102DD00004F132044FF000054FF0000150E700BF4E
:102DE00090F0000F04BF0021704730B54FF48064AD
:102DF00004F1320410F0004548BF40424FF000019A
:102E00003EE700BF42004FEAE2014FEA31014FEADC
:102E100002701FBF12F07F4393F07F4F81F060512B
:102E2000704732F07F4208BF704793F07F4F04BF76
:102E300041F40021704730B54FF4607401F0004553
:102E400021F000411CE700BF50EA010208BF7047B3
:102E500030B54FF000050AE050EA010208BF7047A4
:102E600030B511F0004502D5404261EB41014FF40D
:102E7000806404F132045FEA915C3FF4D8AE4FF015
:102E800003025FEADC0C18BF03325FEADC0C18BFF8
:102E9000033202EBDC02C2F1200300FA03FC20FA49
:102EA00002F001FA03FE40EA0E0021FA02F1144496
:102EB000BDE600BF4FF0FF3C06E000BF4FF0010C45
:102EC00002E000BF4FF0010C4DF804CD4FEA410C79
:102ED0007FEA6C5C4FEA430C18BF7FEA6C5C1BD046
:102EE00001B050EA410C0CBF52EA430C91EA030FC7
:102EF00002BF90EA020F0020704710F1000F91EA24
:102F0000030F58BF994208BF90422CBFD8176FEAF1
:102F1000E37040F0010070474FEA410C7FEA6C5CBF
:102F200002D150EA013C07D14FEA430C7FEA6C5CC6
:102F3000D6D152EA033CD3D05DF8040B704700BFF2
:102F40008446104662468C461946634600E000BF40
:102F500001B5FFF7B7FF002848BF10F1000F01BD12
:102F60004DF808EDFFF7F4FF0CBF012000205DF8DD
:102F700008FB00BF4DF808EDFFF7EAFF34BF012062
:102F800000205DF808FB00BF4DF808EDFFF7E0FFFB
:102F900094BF012000205DF808FB00BF4DF808ED4C
:102FA000FFF7CEFF94BF012000205DF808FB00BFB3
:102FB0004DF808EDFFF7C4FF34BF012000205DF895
:102FC00008FB00BF80F0004002E000BF81F000413C
:102FD00042001FBF5FEA410392EA030F7FEA226CBF
:102FE0007FEA236C6AD04FEA1262D2EB1363C1BF4F
:102FF000D218414048404140B8BF5B42192B88BFBE
:10300000704710F0004F40F4000020F07F4018BFE0
:10301000404211F0004F41F4000121F07F4118BF00
:10302000494292EA030F3FD0A2F1010241FA03FCA8
:1030300010EB0C00C3F1200301FA03F100F0004390
:1030400002D5494260EB4000B0F5000F13D3B0F158
:10305000807F06D340084FEA310102F10102FE2AC7
:1030600051D2B1F1004F40EBC25008BF20F0010037
:1030700040EA03007047490040EB000010F4000FE5
:10308000A2F10102EDD1B0FA80FCACF1080CB2EB78
:103090000C0200FA0CF0AABF00EBC25052421843D7
:1030A000BCBFD0401843704792F0000F81F400017C
:1030B00006BF80F400000132013BB5E74FEA41034F
:1030C0007FEA226C18BF7FEA236C21D092EA030FBB
:1030D00004D092F0000F08BF0846704790EA010F35
:1030E0001CBF0020704712F07F4F04D1400028BF62
:1030F00040F00040704712F100723CBF00F5000044
:10310000704700F0004343F0FE4040F40000704779
:103110007FEA226216BF08467FEA23630146420225
:1031200006BF5FEA412390EA010F40F48000704738
:103130004FF0000304E000BF10F0004348BF4042DE
:103140005FEA000C08BF704743F0964301464FF01A
:1031500000001CE050EA010208BF70474FF0000376
:103160000AE000BF50EA010208BF704711F00043B7
:1031700002D5404261EB41015FEA010C02BF844687
:103180000146002043F0B64308BFA3F18053A3F5E6
:103190000003BCFA8CF2083AA3EBC25310DB01FA2D
:1031A00002FC634400FA02FCC2F12002BCF1004FB1
:1031B00020FA02F243EB020008BF20F00100704742
:1031C00002F1200201FA02FCC2F1200250EA4C0096
:1031D00021FA02F243EB020008BF20EADC707047DC
:1031E0004FF0FF0C1CEAD0521EBF1CEAD15392EAEA
:1031F0000C0F93EA0C0F6FD01A4480EA010C4002C6
:1032000018BF5FEA41211ED04FF0006343EA50101F
:1032100043EA5111A0FB01310CF00040B1F5000F61
:103220003EBF490041EAD3715B0040EA010062F110
:103230007F02FD2A1DD8B3F1004F40EBC25008BFFA
:1032400020F00100704790F0000F0CF0004C08BF18
:1032500049024CEA502040EA51207F3AC2BFD2F1E5
:10326000FF0340EAC250704740F400004FF00003F3
:10327000013A5DDC12F1190FDCBF00F0004070472D
:10328000C2F10002410021FA02F1C2F1200200FA6B
:1032900002FC5FEA310040F1000053EA4C0308BF32
:1032A00020EADC70704792F0000F00F0004C02BF83
:1032B000400010F4000F013AF9D040EA0C0093F0FE
:1032C000000F01F0004C02BF490011F4000F013B58
:1032D000F9D041EA0C018FE70CEAD15392EA0C0FC6
:1032E00018BF93EA0C0F0AD030F0004C18BF31F031
:1032F000004CD8D180EA010000F00040704790F007
:10330000000F17BF90F0004F084691F0000F91F0AA
:10331000004F14D092EA0C0F01D142020FD193EA70
:103320000C0F03D14B0218BF084608D180EA0100F8
:1033300000F0004040F0FE4040F40000704740F0D4
:10334000FE4040F4400070474FF0FF0C1CEAD052A2
:103350001EBF1CEAD15392EA0C0F93EA0C0F69D0FE
:10336000A2EB030280EA010C49024FEA402037D069
:103370004FF0805343EA111143EA10130CF0004060
:103380008B4238BF5B0042F17D024FF4000C8B4250
:1033900024BF5B1A40EA0C00B3EB510F24BFA3EB30
:1033A000510340EA5C00B3EB910F24BFA3EB910300
:1033B00040EA9C00B3EBD10F24BFA3EBD10340EA5A
:1033C000DC001B0118BF5FEA1C1CE0D1FD2A3FF6A0
:1033D00050AF8B4240EBC25008BF20F00100704755
:1033E0000CF0004C4CEA50207F32C2BFD2F1FF03F8
:1033F00040EAC250704740F400004FF00003013A29
:1034000037E792F0000F00F0004C02BF400010F4CC
:10341000000F013AF9D040EA0C0093F0000F01F0E0
:10342000004C02BF490011F4000F013BF9D041EA02
:103430000C0195E70CEAD15392EA0C0F08D1420235
:103440007FF47DAF93EA0C0F7FF470AF084676E708
:1034500093EA0C0F04D14B023FF44CAF08466EE7E1
:1034600030F0004C18BF31F0004CCAD130F00042AF
:103470007FF45CAF31F000437FF43CAF5FE700BF07
:1034800042000ED2B2F1FE4F0BD34FF09E03B3EBCE
:10349000126209D44FEA002343F0004323FA02F0FA
:1034A00070474FF00000704712F1610F01D14202E6
:1034B00002D14FF0FF3070474FF00000704700BF5F
:1034C00053B94AB9002908BF00281CBF4FF0FF318B
:1034D0004FF0FF3000F072B9ADF1080C6DE904CE89
:1034E00000F006F8DDF804E0DDE9022304B07047DF
:1034F0002DE9F047089E04468846002B4BD18A42AE
:10350000154667D9B2FA82F24AB1C2F1200701FA30
:1035100002F320FA07F7954047EA030894404FEA80
:10352000154E230CB8FBFEF71FFA85FC0EFB17881F
:1035300043EA084307FB0CF1994209D9EB1807F15C
:10354000FF3080F01B81994240F21881023F2B44EA
:103550005B1AA4B2B3FBFEF00EFB103344EA034443
:1035600000FB0CFCA44509D92C1900F1FF3380F0B5
:103570000781A44540F2048102382C4440EA074008
:10358000A4EB0C0400271EB1D4400023C6E900437D
:103590003946BDE8F0878B4209D9002E00F0EB8058
:1035A0000027C6E9000138463946BDE8F087B3FA7E
:1035B00083F7002F47D18B4202D3824200F2FA8078
:1035C000841A61EB030301209846002EE0D0C6E97F
:1035D0000048DDE702B9FFDEB2FA82F2002A40F0CD
:1035E0008F80491B4FEA154E1FFA85F80127B1FB62
:1035F000FEFC230C0EFB1C1143EA014308FB0CF1FB
:10360000994207D9EB180CF1FF3002D2994200F22F
:10361000CD808446591AA3B2B1FBFEF00EFB101404
:1036200043EA044408FB00F8A04507D92C1900F12F
:10363000FF3302D2A04500F2B6801846A4EB08047E
:1036400040EA0C409FE7C7F1200CBB4022FA0CFE79
:103650004EEA030E01FA07F420FA0CF521FA0CF3F6
:103660004FEA1E482543B3FBF8F92C0C08FB19332D
:103670001FFA8EFA44EA034309FB0AF49C4202FA59
:1036800007F200FA07F10BD91EEB030309F1FF3033
:1036900080F087809C4240F28480A9F10209734443
:1036A0001B1BADB2B3FBF8F008FB103345EA034433
:1036B00000FB0AFAA24508D91EEB040400F1FF330F
:1036C0006BD2A24569D90238744440EA0940A0FB94
:1036D0000289A4EB0A044C45C2464B4654D351D050
:1036E000002E69D0B1EB0A0564EB030404FA0CFC6C
:1036F000FD40FC404CEA0505C6E90054002747E7B9
:10370000C2F1200320FA03F7954001FA02F021FAF2
:1037100003F34FEA154E3843010CB3FBFEF71FFAD3
:1037200085F80EFB173341EA034107FB08F38B4290
:1037300004FA02F407D9691807F1FF3C2FD28B4233
:103740002DD9023F2944CB1A81B2B3FBFEF00EFB08
:10375000103341EA034100FB08F38B4207D9691893
:1037600000F1FF3C17D28B4215D902382944C91AFF
:1037700040EA07473BE73746304609E70746E7E6B2
:103780001846FBE64145ABD2B8EB020A69EB0E02E4
:1037900001381346A4E76046E9E7184695E767460F
:1037A000D1E781467CE702382C4447E7ACF1020CB4
:1037B0002B442FE7384608E73746E9E6704700BF55
:1037C000014B1868704700BF3C00002030B5141E44
:1037D00005469BB0184605DA8B232B604FF0FF306F
:1037E0001BB030BD4FF40273ADF80C3014BF04F1C0
:1037F000FF332346029305934FF6FF730091049124
:10380000ADF80E3002461E9B6946284600F072F85D
:10381000431CBCBF8B232B60002CE1D0009B0022FB
:103820001A70DDE707B5009313460A4601460348C0
:103830000068FFF7CBFF03B05DF804FB3C000020FD
:103840002DE9F0478E689E4282460C469046994686
:1038500037D88A8912F4906F31D0256809696F1AB8
:103860006569022305EB450595FBF3F509F10103B5
:103870003B449D4238BF1D46530530D5294600F0D4
:1038800079FB064650B90C23CAF80030A38943F0EF
:103890004003A3814FF0FF30BDE8F0873A4621692D
:1038A00000F0F6FAA38923F4906343F08003A38128
:1038B000266165613E44ED1B2660A5604E464E457F
:1038C00000D94E4632464146206800F0ECFAA36823
:1038D0009B1BA36023681E4426600020DCE72A4669
:1038E00000F0A2FB06460028E2D12169504600F014
:1038F000F3FAC8E72DE9F04F9DB0804603938B891A
:103900001D060C4616460FD50B696BB9402100F019
:1039100031FB2060206128B90C23C8F800304FF03B
:10392000FF30C7E0402363610023099320238DF813
:10393000293030238DF82A304FF0010B37463D46B1
:1039400015F8013B0BB1252B3ED1B7EB060A0BD086
:103950005346324621464046FFF772FF013000F0E1
:10396000A480099B534409933B78002B00F09D8071
:1039700000234FF0FF32CDE90523049307938DF820
:1039800053301A932F46052217F8011B4F4800F0B9
:103990002FFA049BD0B9D90644BF20228DF85320BA
:1039A0001A0744BF2B228DF853202A782A2A15D0D3
:1039B000079A2F4600200A25394611F8013B303B73
:1039C000092B4DD9B8B10FE02F46B8E73F4A801A0E
:1039D0000BFA00F0184304903D46D3E7039A111DFB
:1039E00012680391002A01DB079204E0524243F07F
:1039F0000203079204933B782E2B0CD17B782A2B61
:103A000033D1039B1A1D1B680392002BB8BF4FF0E4
:103A1000FF33023705932E4D39780322284600F0F4
:103A2000E7F938B14023401B03FA00F0049B03433D
:103A300001370493397827488DF8281006227E1C18
:103A400000F0D6F9002838D0234B13BB039B073373
:103A500023F0070308330393099B4B4409936DE755
:103A600005FB023201200F46A6E70023013705932C
:103A700019460A25384610F8012B303A092A03D98D
:103A8000002BC8D00591C6E705FB0121012307469D
:103A9000F0E703AB00932246104B04A94046AFF376
:103AA0000080B0F1FF3F8146D6D1A3895B063FF588
:103AB00036AF09981DB0BDE8F08F03AB00932246E6
:103AC000064B04A9404600F081F8EAE7A0E50008AB
:103AD000A6E50008AAE5000800000000413800083B
:103AE0002DE9F04791461F468A680B69DDF8208072
:103AF0009342B8BF1346C9F8003091F843200646F8
:103B00000C4612B10133C9F800302368990642BF50
:103B1000D9F800300233C9F80030256815F00605E1
:103B200007D104F1190AE368D9F800209B1AAB42C7
:103B300028DC94F843302268003318BF0123920632
:103B40002DD404F1430239463046C047013020D01D
:103B50002368E568D9F8002003F00603042B08BFAA
:103B6000AD1AA36822690CBF25EAE57500259342CA
:103B7000C4BF9B1AED184FF000091A344D451AD1F5
:103B8000002008E00123524639463046C047013044
:103B900003D14FF0FF30BDE8F0870135C3E7E118EE
:103BA0005A1C302081F84300224494F8451082F8D2
:103BB00043100233C5E70123224639463046C04749
:103BC0000130E6D009F10109D8E700002DE9F04302
:103BD00001F1430C0C46097E85B06E291746064656
:103BE00098460C9A00F0B38022D8632936D00AD8C0
:103BF000002900F0B980582900F0838004F14205C3
:103C000084F8421032E0642901D06929F6D1206895
:103C10001368050603F104012AD51B681160002B07
:103C200003DA2D225B4284F843206F480A2239E0F0
:103C3000732900F09D8008D86F2920D07029DDD12C
:103C4000236843F02003236003E0752917D0782907
:103C5000D4D1782384F84530644855E01368191DA1
:103C60001B68116004F1420584F8423001238CE0A6
:103C70001B68116010F0400F18BF1BB2CFE713682C
:103C80002568181D1060280601D51B6802E068062B
:103C9000FBD51B8854486F2914BF0A220822002133
:103CA00084F843106568A560002DC0F295802168F6
:103CB00021F004012160002B3DD1002D40F08E80C9
:103CC0006546082A0BD12368DB0708D5236962689B
:103CD0009A42DEBF302305F8013C05F1FF35ACEB1D
:103CE00005032361CDF800803B4603AA21463046F8
:103CF000FFF7F6FE01304DD14FF0FF3005B0BDE8C3
:103D0000F083394884F84510136821681D1D1B682D
:103D100015600A060BD5CA0744BF41F02001216097
:103D20001BB9226822F0200222601022B7E74D065C
:103D300048BF9BB2EFE76546B3FBF2F102FB1133DC
:103D4000C35C05F8013D0B460029F5D1B9E71368BE
:103D500025686169181D106028061B6801D5196067
:103D600002E06A06FBD51980002323616546B9E7A6
:103D70001368191D11601D6862680021284600F053
:103D800037F808B1401B606063682361002384F842
:103D90004330A7E723692A4639463046C0470130F9
:103DA000AAD023689B0713D4E068039B9842B8BF4E
:103DB0001846A3E701234A4639463046C04701303A
:103DC0009AD00135E368039A9B1AAB42F2DCEBE729
:103DD000002504F11909F5E7002BACD1037884F82C
:103DE000423004F142056CE7B1E50008C2E5000885
:103DF00001F0FF01102A2BDB10F0070F08D010F89C
:103E0000013B013A8B422DD010F0070F42B3F6D19F
:103E1000F0B441EA012141EA014122F007047FF0B8
:103E200000070023F0E80256083C85EA010586EA0F
:103E3000010685FA47F5A3FA87F586FA47F6A5FA4B
:103E400087F68EB9EED1F0BC01F0FF0102F0070257
:103E500032B110F8013B013A83EA010313B1F8D102
:103E60000020704701387047002D06BF35460338E3
:103E7000073815F0010F07D1013015F4807F02BF1C
:103E8000013015F4C03F0130F0BC0138704700BF6D
:103E900010B5431E0A44914200D110BD11F8014BE8
:103EA00003F8014FF7E7884210B501EB020307D88A
:103EB000421E99420AD011F8014B02F8014FF8E76F
:103EC0008342F5D98118D21AD34200D110BD13F81C
:103ED000014D01F8014DF7E738B50546002945D0F9
:103EE00051F8043C0C1F002BB8BFE41800F0D2F8C6
:103EF0001F4A1368104633B9636014602846BDE852
:103F0000384000F0C8B8A3420CD921686218934227
:103F100004BF1A685B68636004BF521822600460C3
:103F2000ECE713465A680AB1A242FAD91968581840
:103F3000A0420BD120680144581882421960DDD19B
:103F4000106852685A6001441960D7E702D90C23FF
:103F50002B60D3E7206821188A4204BF1168526899
:103F6000626004BF091821605C60C7E738BD00BF0C
:103F70005401002070B5CD1C25F0030508350C2D2B
:103F800038BF0C25002D064601DBA94203D90C23BE
:103F90003360002070BD00F07DF8214A146821468E
:103FA00091B9204C23681BB9304600F063F82060BB
:103FB0002946304600F05EF8431C24D10C233360C0
:103FC000304600F068F8E4E70B685B1B18D40B2B55
:103FD0000FD90B60CD50CC18304600F05CF804F1DE
:103FE0000B00231D20F00700C31AD3D05A42E25021
:103FF000D0E78C424B6816BF636013600C46EBE75A
:104000000C464968CCE7C41C24F00304A04205D048
:10401000211A304600F02EF80130CFD02560DBE7C2
:104020005401002058010020F8B5074614460E46FA
:1040300021B91146BDE8F840FFF79CBF22B9FFF750
:104040004BFF25462846F8BD00F026F8A0420FD2C7
:1040500021463846FFF78EFF05460028F2D031464C
:104060002246FFF715FF31463846FFF735FFE9E7EF
:104070003546E7E738B5064C002305460846236079
:10408000FCF7D0F9431C02D1236803B12B6038BD83
:104090005C0100207047704751F8043C181F002B4A
:1040A000BCBF0B58C0187047537461636B206672B5
:1040B000616D653A0A000000205230203D20202525
:1040C0003038580A00000000205231203D202025C1
:1040D0003038580A00000000205232203D202025B0
:1040E0003038580A00000000205233203D2020259F
:1040F0003038580A0000000020523132203D20257F
:104100003038580A00000000204C52203D20202565
:104110003038580A00000000205043203D20202560
:104120003038580A0000000020505352203D20250E
:104130003038580A000000004653522F4641523A88
:104140000A0000002043465352203D2020253038ED
:10415000580A00002048465352203D202025303880
:10416000580A00002044465352203D202025303874
:10417000580A00002041465352203D202025303867
:10418000580A0000204D4D464152203D2025303830
:10419000580A00002042464152203D202025303858
:1041A000580A00004D6973630A000000204C522F2A
:1041B0004558435F52455455524E3D20253038589E
:1041C0000A0000005B486172644661756C745D0AA8
:1041D000000000005B4275734661756C745D0A00F7
:1041E0005B55736167654661756C745D0A0000001C
:1041F00000000000000000040404040400040A0A93
:104200000A000000000A0A1F0A1F0A0A041E050EFF
:10421000140F0403130804021918060905021509EE
:10422000160604020000000008040202020408024C
:10423000040808080402000A041F040A0000040419
:104240001F040400000000000604020000001F001C
:104250000000000000000006060010080402010033
:104260000E11191513110E0406040404040E0E1188
:10427000100804021F1F08040810110E080C0A0978
:104280001F08081F010F1010110E0C02010F111151
:104290000E1F1008040202020E11110E11110E0E53
:1042A00011111E100806000606000606001008047C
:1042B000020408101008040204081000001F001F68
:1042C0000000010204080402010E11100804000499
:1042D0000E11101615150E0E1111111F11110F11BF
:1042E000110F11110F0E11010101110E070911110A
:1042F0001109071F01010F01011F1F010107010122
:10430000010E11010119110E1111111F1111110EC0
:1043100004040404040E1C08080808090611090511
:10432000030509110101010101011F111B151111E3
:104330001111111113151911110E11111111110E65
:104340000F11110F0101010E1111111509160F1195
:10435000110F0509111E01010E10100F1F04040496
:104360000404041111111111110E11111111110A6E
:104370000411111115151B1111110A040A11111143
:10438000110A040404041F10080402011F1C040481
:104390000404041C000102040810000704040404BF
:1043A0000407040A11000000000000000000001FC4
:1043B0000204080000000000000E101E111E010182
:1043C0000D1311110F00000E0101110E101016191E
:1043D00011111E00000E111F010E0C120207020225
:1043E0000200001E111E100C01010D131111110409
:1043F00000060404040E08000C0808090602021254
:104400000A060A120604040404040E00000A151524
:10441000111100000D1311111100000E1111110ED8
:1044200000000F110F0101000016191E10100000EE
:104430000D1301010100000E010E100F0202070210
:1044400002120C0000111111191600001111110AAD
:10445000040000111115150A0000110A040A1100C8
:104460000011111E100E00001F0804021F08040492
:1044700002040408040404040404040204040804F8
:1044800004020004081F0804000004021F020400C4
:10449000620862086208A310C310E418C310C310B6
:1044A000A310A310C310C310E418E418C310C31062
:1044B000A310A310A310A310A310C310C310C31004
:1044C000E418E418E310C310A310820882088208DD
:1044D00062088208820882088208A208A310C3101A
:1044E000A310A310A310A310C310C310A31082081D
:1044F000620882088208A208A310A310C310C31088
:10450000C310C310A20882088208A310A310820857
:104510008208A208A310C310C310C310A310A310D5
:10452000A310A310A310A310A208A208A208A3100E
:10453000820882088208A210A210820882086208FB
:10454000820882088208A210A310A310A310A3104F
:10455000A310A310A310A310A310A310A2088208F5
:10456000820882088208620841004100410061001F
:10457000620862086208610041004100610062084F
:104580006208620862084100410061008208A310CD
:1045900082088208A310E4180419E418C310C31099
:1045A000C310E418E41804190419E310C310A3108D
:1045B000A310A310A2088208A310C310C310C31035
:1045C000C310C310C310A310A310A310A310C310D3
:1045D000C310C310A310A2088208820882088208B0
:1045E0008208A310A310C310C310C310A310820825
:1045F0008208A310A310C310C310C310C310C310AC
:10460000C310A310A3108208A310C310C310C310BB
:10461000A310A310C310C310C310C310C310A31062
:10462000E310C310C310C310A310820882086208ED
:10463000620862086208620862086208620882080A
:104640008208A210C310C310E318C310A310A21055
:10465000A208A2088208820882088208620862080A
:10466000620882088208820862086208620882087A
:10467000820882088208620862088208A310C310B8
:10468000A208A208820862086100410041002100DE
:104690008208A310C310E418E418C310C310C31099
:1046A000C310E418041925210419E310C310A31042
:1046B000C310C310C310C310C310E418E418E418E7
:1046C000C310C310A310A310A310C310C310E41889
:1046D000E418E310A3108208820882088208820886
:1046E0008208A310C310C310C310C310C310A310BB
:1046F000A310C310C310C310C310E310E418E418D0
:10470000E310E418E310C310C310E310E418E41836
:10471000C310C310C310E310E418E418E418E31046
:10472000E310C310C310C310A3108208620862080C
:104730006208620862086208610841006208620853
:1047400062088208A310C310E318C310C310A3109B
:10475000A310A310A310A310A20882088208820845
:1047600082088208A208A310A310A310A310A20815
:10477000A310C310C310C310C310C310C310C310C1
:10478000C310C310C310C310C310A3108208620863
:10479000C310C310C310C310C310C310C310E31061
:1047A000C3100419252125210419E418C310C310CE
:1047B000C310C310C310E310E4180419041904193A
:1047C00004190419E418E310C310E310E4180419E1
:1047D000E418E310A310A310A310A310A310A310B8
:1047E000E310E418E310C310A310C310C310E310C8
:1047F000E418E418E418E418E4180419E418E418B8
:10480000E418E418E418E310E418E418E418E418D1
:10481000C310C310C310C310E310E310C310C310C0
:1048200082088208A208A208A208820882088208D8
:104830006208620882088208820882088208820868
:1048400082088208A310A310A310A310A310A31022
:10485000C310C310E418E310C310C310A310C31097
:10486000C310C310C310E310E310C310C310A31090
:10487000C310C310E310E418E418E310C310C3100E
:10488000C310C310A310C310E41804190419E418CA
:104890000419E418C310C310E310E418E418041951
:1048A00004192521252125210419E418E418E41808
:1048B000E418E41804190419041924190419041932
:1048C0004521252124190419E418E418E4180419D1
:1048D0000419E418E310E310E418E41804190419A7
:1048E00004190419E418C310C310C310E418041900
:1048F00004190419E418E41804190419E418E3105D
:10490000C310C310C310C310C310E418C310A31006
:10491000A310A310A310A310A3108208820862089A
:1049200062086208820882088208A208A310A31005
:10493000820882088208A208A310A310A310A31063
:10494000E418E310C310C310A31082088208820881
:10495000A310C310E310E418E310C310E310E4182D
:10496000E418E418E41804190419E418E418C3104E
:10497000C310C310C310A310C310C310E41804194C
:104980000419E310C310C310E418041925212521CC
:10499000E418E310C310C310E418E310E310E310AD
:1049A000041904190419041904190419041904191F
:1049B000E4180419041904190419E4180419041951
:1049C0000419041904190419E418E418E418E41883
:1049D000E418E418E418E418E418E418E418E418F7
:1049E000E418E418E418E310C310E310E418E41822
:1049F000E418C310C310C310041904190419E418EF
:104A0000C310C310C310C310C310C310A310820877
:104A1000820882088208A208A208A208A208A208A6
:104A2000A310A310C310C310C310C310C310C3102E
:104A3000C310C310A310A310A310C310C310C3103E
:104A4000041904190419E418C310A310A310A20830
:104A5000A310C310C310E310E310E310E418E4182C
:104A6000041904190419041904190419041904195E
:104A7000E418E418E418E418E418E4180419041914
:104A800025210419E418C310E4180419252125214F
:104A9000E418C310C310E310E310E310E310E418AC
:104AA000041904190419241925214521452125211A
:104AB000E310E310E418C310A3108208A310C3107E
:104AC000E418E41804190419041904190419E41861
:104AD0000419041904190419E418E418E418E3107B
:104AE000E310E4180419E418E418E418E418E418CE
:104AF000E310C310C310E310E4180419E418E41819
:104B0000E418E418E418E418E418E418C310A31037
:104B1000A310A310C310C310C310E310E4180419AA
:104B2000E418E4180419041904190419E418E41821
:104B300004190419E418C310C310C310E310E418D7
:104B4000E418E41804190419E418C310C310C310BE
:104B5000C310C310E418E418E418E418E418E418C7
:104B60000419041904190419E418E418041904199F
:104B7000E418041925214521252124190419E418D4
:104B8000E310E310E310E310E418E4180419041927
:104B900004190419041904190419041924194521C4
:104BA0002521252125214521662966294521252103
:104BB000041904190419E418A3108208A310E310BF
:104BC00004190419252145214521252124190419F9
:104BD0002521252145212521252104190419041900
:104BE0000419241924190419041924192521241934
:104BF00025212521252124190419E418E418E41895
:104C0000E310E418E418E418041904192419041929
:104C1000041904192419041904190419041904198C
:104C2000E4180419041904190419E418E418C31049
:104C3000E418041904190419E418E41804190419EF
:104C40000419041904190419E418C310C310C3107B
:104C50000419E418E418E41804190419E418E41811
:104C60000419041904190419E418C310E310E41812
:104C7000E4180419241925212521252104190419D2
:104C8000C310E418041925212521241924192521EC
:104C9000252125214521252104192521652145218D
:104CA0000419E418E41824194521652166296629A8
:104CB0006629862986296629452145216521662997
:104CC0006629662966298629662925212419252130
:104CD000E418041904190419041945214521452132
:104CE0004521252145214521652145214521452194
:104CF000452125212419E418C310C310E418E41831
:104D0000E4182419041904192521452125214521D8
:104D10004521252104190419041904190419041939
:104D20000419252125212521041904190419E41841
:104D3000C310C310E310C310E418041904190419B4
:104D40000419E418E418E310E310E310E41804195C
:104D50002419041904190419241924190419E4182C
:104D6000E418E418E418E418E418E418E310C31095
:104D7000E41804190419041904190419241904194C
:104D8000241904192521452145212521452166297C
:104D9000251925194521652145214521452104195C
:104DA000E310E410041945214521452165216521C1
:104DB0008629A729C731A72986298629A629A729AF
:104DC00066218629A629A729862945210419E410E8
:104DD000C310E310E310E410241965218629A629E5
:104DE000662145214521251924190419041904199E
:104DF000E410E410E410041924194521452145214B
:104E000065216621652145216621662145214521CF
:104E10006521452124190419041904192419241998
:104E20000419241925192419041904190419041939
:104E3000E310E310E310E41804192521452165214E
:104E40004521252125212419041904190419252196
:104E50002519041904190419041904190419E41072
:104E6000E410E410E410E4100419041904190419FE
:104E7000E310E410E41004190419041904190419C6
:104E800004192419251925192519452145214521DC
:104E9000662166218629A729A62986296521251943
:104EA0000419251945216621452145214521652102
:104EB00065218629862986296521662186298629F4
:104EC0008629A629C731C731A72945210419E3102E
:104ED000C310E41004192519452166218629862965
:104EE00065212519E410C310A2088208A208A308AE
:104EF0002519251945216621A729C731A729862902
:104F0000662166216621662186298629652165211B
:104F100086296521452124192419241924192419C5
:104F200004192419241925192419041924194521AF
:104F30004521252104190419252125214521652113
:104F400045214521252125212521252125214521D1
:104F50002519251924192419251925192419041985
:104F6000251904190419E4100419241925192519FF
:104F7000251925192419041904190419E410E41039
:104F80000419041924190419041945214521241967
:104F900065214521662186298629662166214521CC
:104FA00065216521662166214521452166218629E5
:104FB000A629A62986296621652165218629A62993
:104FC000C731E731E731E731A72986294521452156
:104FD00004192519452165216521452145214521D2
:104FE000452125190419E410E310E4102519652161
:104FF000C731C731C731C731C731C731A729A62942
:105000008629862966218629A72986296521662180
:105010006521452145214521452145214521452140
:105020004521452165218629862966216621862913
:105030006629452125212521252104190419252129
:105040000419041904192419252125212521452194
:1050500024194521652165216521452145214521E9
:1050600025190419E310E310E41004192419241974
:1050700025192519241925194521452145214521A1
:1050800045214521452145214521662165214521AF
:1050900045214521652186296621652166218629CC
:1050A000662165216521662186298629C731E83177
:1050B000E831E731C731A72986298629A629A729FA
:1050C000083A083AE731C731A62986298629662198
:1050D000452145214521452145214521652166215F
:1050E000A62986298629662165216621A629C73138
:1050F000C731E731C731A729862966218629A62924
:10510000A729A72986298629A62986294521452157
:10511000652165216521662186298629A629A72979
:10512000662165216521652165216521652166214D
:105130004521452124192419241904192419241955
:1051400024190419241945214521452145214521CA
:10515000241945216521652145214521662186299E
:10516000652145210419041925194521662186293F
:1051700045212519251945216621662166218629A3
:105180008629452145214521652165216521662125
:1051900066216621A729C731A6298629A729A7291B
:1051A00086298629A629C731E831E831083A083A24
:1051B000E731C731C731C731A62986298629862913
:1051C000E831E731C73186298629662166216521C4
:1051D0004521452145214521452165216621862915
:1051E000C731A729A629A629862966216621662115
:1051F000A629C731C731A72986296621A729E83101
:10520000C731E831C731A729A729A72986298629C7
:1052100045214521251924192519452145216521B7
:1052200086296621452125194521452165214521EC
:105230006621862966214521251925192519251953
:1052400065214521452145216521452145214521EE
:105250002519452145214521251945218629A629BC
:10526000A72986298629662186298629A729C73163
:10527000662165214521652166216521452145215C
:105280004521241904192419251924192519452102
:1052900086298629C731C731A729A729C731A72958
:1052A000C731C731E831283A293A083A083AE83193
:1052B000E731E731E731E731C731A729A629A62928
:1052C000C731C731A72986298629862986298629B3
:1052D000862986298629A629A62986298629862916
:1052E000A629A629A729C731E731C731A6298629CA
:1052F0008629A729C731C731C731A729C731C73187
:10530000E731083A083AC731E831083A083AE83153
:10531000C731C731A72986298629A629A729C731D8
:10532000C731C7318629652166218629862945210D
:105330006521A629C731A62986296621662145212E
:1053400086296621452145214521452145216521A3
:105350006521452145214521452166218629A72929
:10536000A629A629862986296621662186298629D5
:105370006621652165218629A6298629862986290F
:105380006621652145214521452125192519251924
:10539000A729C731E731C731C731E831E831C73113
:1053A000C731E731083A293A293A083AE831E73172
:1053B000083AE731E731E831E831E731E731E83100
:1053C000E731E731C731C731C731E831083A083A28
:1053D000E831C731A729C731C731C731C731E831F3
:1053E000E831E831083A283A083AC7318629662177
:1053F000A629A729C731E731C731A629662165212A
:10540000A629E831E731A629A729E731E831E831B3
:10541000E731E731E831E831E831083A083A283A2B
:10542000083AE831C7318629662186294521C3100B
:10543000E3104521C731C731C731C731C73186298C
:10544000A629662145214521452145216521862939
:1054500086298629652166218629A729A729A629C3
:1054600086298629A6298629862986298629A72983
:10547000C731A629A629A729C731A62986298629A1
:1054800086298629862945212519251924190419D3
:10549000E731A729A729E831293A493A0832C73123
:1054A000A729C731293A293AE831E831083A083AB8
:1054B00049426A42283A083A293A083AE831C7315B
:1054C000E831083A083AE831C731E731E831E831E4
:1054D000E831C731E731083A083A49426A4249425D
:1054E000283A283A293A283A083AC7318629C73152
:1054F000C731C731C731A7298629A729C731C73185
:10550000E831C731A729A729E831283AE831A72986
:10551000A729E731083A283A0832C731C731E831BC
:10552000A729C729E731E831E73186292519E41091
:10553000E4106621C731C731E831293A083AE83129
:10554000E731E731C731C731C731C731A729A629AC
:10555000C731E839C731A731E839083AC731862958
:10556000A731862986298629A731A731A731A731F6
:10557000A7316629A731083AC731A731A731862953
:1055800086292519C310C310041945216629A7319E
:10559000A629C731083A293A283A0832E831083AA8
:1055A000C731083A49424942283A083A083A083A83
:1055B00049426A42293A293A49424942293A083A33
:1055C000E831083A083A083AE831083A083A293AFC
:1055D000283A293A4942694249426A426A42283A8B
:1055E000083A083A4942293A083A083AE831293A49
:1055F0004942083AE731C731E831083A293A293AAD
:10560000C731C731C731E731E831E831083A083AE4
:10561000083A283A293A283AC73186218629C729E3
:10562000C731E731E831083A083A0832E831C73182
:10563000E831E831083A283A293A083A083A293A4A
:105640006942293A083AC731C731C731C731C73132
:105650008629C731E839083A083AC731C731E839ED
:10566000E839083A083AE839A731662966216629F7
:10567000A7298629E8312942E839A7316629252159
:10568000A3106208C31025214521C731083AA7316C
:10569000A629E731293A6A426942493A293A293A20
:1056A0008A4AAB4ACB52AB4A8A4A4942293A4942D2
:1056B00049426A42494249426A4249424942293A78
:1056C000283A083AE831E831E831283A69428A4A0A
:1056D0008A4AAA4AAB4A6A42293A49426942293A65
:1056E000083A283A4942293A083A293A283A494296
:1056F0006942293A083A083A083AE731E831283A43
:10570000E831E831083A083AE831C731A729C7310A
:105710004942293A283A283A0832E731E831083A2A
:10572000283A083A0832E8310832083A293A293A40
:10573000E831083A283A083A083A293A69426A426E
:105740004942293A283A083A083A083AE831E83111
:10575000A731C731083A49424942083AC731083AA5
:10576000083A083A294229422942083AE839C73119
:10577000E839C731A7318629662945212521041931
:10578000C3108208E41866216629C731083AC73178
:10579000494249424942494269426A428A4AAB4ABD
:1057A000CB52EB52AB4A8A4A8A4A6A4A49426A4A0F
:1057B000AB4AAB4A8A4AAB4ACB52CB52CB52CB52C2
:1057C0004942283AE831E831083A293A69428A4A96
:1057D0006A428A4A8A4A4942083A083A4942494250
:1057E000494249428A4A6A4269428A4A494249428E
:1057F0004942293A083A083A283A083A283A293ACE
:10580000283A283A293A494249424942283A083A2C
:10581000293A69426A424942283A083A293A694291
:10582000293A293A293A49424942293AE831C731C5
:105830006621C731083A083AE731083A49426A42D4
:10584000293A494249426A426942494249424942E7
:1058500049424942083AE831083A083A083A283AAF
:10586000E831E831083A293A6A424942083AC731F0
:10587000662145210419E410251945216621862950
:10588000E831E731A6298629862945212519862967
:105890008A42AA4ACB4AAB4A8A4A8A4A8A4A8A4AEE
:1058A000CB52AB4A6A426A428A4AAB528A4AAB52EC
:1058B000CB52AB4AAA4ACB52EB52EC520C5B0C5B7C
:1058C0008A4A6A4249426A426A426A4249424942B3
:1058D000293A69428A4A8A4A6A42494249426A42A4
:1058E0006A4249428A4A8A4A6A42AB4A8A4A6942B9
:1058F0006A428A4AAA4A4942E831E831083A4942AA
:10590000283A4942494249426A428A4A6A42293A05
:105910006A42EC522D5BCB524942293A49426A42D3
:105920004942283AE831E831083A083AE831C731C3
:10593000E731C731083A4942083AC731083A293AAB
:1059400049424942694269424942293A293A49420F
:105950006A428A4A8A4A6A424942293A293A6A424A
:105960006A428A4A6A42293AE731A729A629A72921
:10597000C731C731E831283A6A428A4A6A42494205
:105980006A428A4A4942083A283AC7316621662162
:105990008A4AAA4ACB52EC52EC52CB526A42283A7B
:1059A000CB52AB52AB4AAB52EC5AEC5AEC52CB5204
:1059B0000C5BEC5AEC5A0C5B0C5B0C5B4D632D5B87
:1059C000EC5ACB52AB4AAB4ACB52EC52CB528A4A3E
:1059D0006A428A4AAB4ACB52AB4A6A4249428A4A35
:1059E0008A4A49426A426A426A42AB4AAB4A8A4A96
:1059F0008A4ACB52EC52AA4A293A083A083A083A5B
:105A0000083A49426A424942293A49426942293A96
:105A10006A42CB520C5BCB528A4A8A4A8A4A6A4211
:105A20006942083AC731A729C731083A283A293AC2
:105A30006A42494269426942494269428A4A694224
:105A4000293A49426A426A424942083A083A293A9E
:105A5000AB4A8A4A8A4AAB4ACB528A4A6A42AB4A22
:105A60000C5BEC528A4AE8318629A629083A6A4238
:105A70004942494269428A4AAB4AAA4A8A4A6A4228
:105A80006A426A426A4269426A428A4A293A6621FD
:105A9000EB52AB4A8A4A8A4AAB4AEB52CB528A4A09
:105AA000CB52CB52EC5A0C5B0C5B0C5BEC5ACB52DE
:105AB000CB52CB52CB520C5B0C5BEC5A0C5BCB52F7
:105AC000EC5ACB52AB52AA4AEC5A2D632D63EC5AD6
:105AD000CB52EC5ACB528A4A8A4A6A4A6A4A8A4A62
